:020000040800F2
:1000000000500020A9100008A50E0008AB0E000843
:10001000B10E0008B70E0008BD0E00080000000079
:10002000000000000000000000000000C30E0008F7
:10003000CF0E000800000000DB0E0008E70E0008ED
:10004000F1100008F1100008F1100008F11000088C
:10005000F1100008F1100008F1100008F11000087C
:10006000F1100008F1100008F1100008F11000086C
:10007000F1100008F1100008F1100008F11000085C
:10008000F1100008F1100008F1100008F11000084C
:10009000F1100008F1100008F1100008F11000083C
:1000A000F1100008F1100008F1100008F11000082C
:1000B000F50E0008F1100008F1100008F11000081A
:1000C000F1100008F1100008F1100008F11000080C
:1000D000F1100008090F0008F1100008F1100008E5
:1000E000F1100008F1100008F110000800000000F5
:1000F0000000000000000000000000000000000000
:0C01000000000000000000005FF808F1A3
:1001100010B5054C237833B9044B13B10448AFF341
:1001200000800123237010BD0802002000000000A1
:10013000445F000808B5034B1BB103490348AFF304
:10014000008008BD000000000C020020445F000891
:10015000034613F8012B002AFBD1181A0138704707
:1001600081F0004102E000BF83F0004330B54FEA68
:1001700041044FEA430594EA050F08BF90EA020FD5
:100180001FBF54EA000C55EA020C7FEA645C7FEA68
:10019000655C00F0E2804FEA5454D4EB5555B8BF8B
:1001A0006D420CDD2C4480EA020281EA030382EAFC
:1001B000000083EA010180EA020281EA0303362D8E
:1001C00088BF30BD11F0004F4FEA01314FF4801C61
:1001D0004CEA113102D0404261EB410113F0004F73
:1001E0004FEA03334CEA133302D0524263EB43032A
:1001F00094EA050F00F0A780A4F10104D5F1200EC8
:100200000DDB02FA0EFC22FA05F2801841F1000122
:1002100003FA0EF2801843FA05F359410EE0A5F1F6
:1002200020050EF1200E012A03FA0EFC28BF4CF027
:10023000020C43FA05F3C01851EBE37101F00045DD
:1002400007D54FF0000EDCF1000C7EEB00006EEBEA
:100250000101B1F5801F1BD3B1F5001F0CD3490874
:100260005FEA30004FEA3C0C04F101044FEA4452CB
:1002700012F5800F80F09A80BCF1004F08BF5FEA52
:10028000500C50F1000041EB045141EA050130BD32
:100290005FEA4C0C404141EB0101013C28BFB1F544
:1002A000801FE9D291F0000F04BF01460020B1FA8F
:1002B00081F308BF2033A3F10B03B3F120020CDA62
:1002C0000C3208DD02F1140CC2F10C0201FA0CF040
:1002D00021FA02F10CE002F11402D8BFC2F1200CA5
:1002E00001FA02F120FA0CFCDCBF41EA0C0190405B
:1002F000E41AA2BF01EB0451294330BD6FEA0404A4
:100300001F3C1CDA0C340EDC04F11404C4F120028E
:1003100020FA04F001FA02F340EA030021FA04F3A0
:1003200045EA030130BDC4F10C04C4F1200220FAF7
:1003300002F001FA04F340EA0300294630BD21FA35
:1003400004F0294630BD94F0000F83F4801306BFFB
:1003500081F480110134013D4EE77FEA645C18BFEF
:100360007FEA655C29D094EA050F08BF90EA020F86
:1003700005D054EA000C04BF1946104630BD91EA7E
:10038000030F1EBF0021002030BD5FEA545C05D181
:100390004000494128BF41F0004130BD14F58004C0
:1003A0003CBF01F5801130BD01F0004545F0FE4134
:1003B00041F470014FF0000030BD7FEA645C1ABF69
:1003C000194610467FEA655C1CBF0B46024650EAA0
:1003D000013406BF52EA033591EA030F41F40021CC
:1003E00030BD00BF90F0000F04BF0021704730B552
:1003F0004FF4806404F132044FF000054FF0000127
:1004000050E700BF90F0000F04BF0021704730B5E7
:100410004FF4806404F1320410F0004548BF4042BC
:100420004FF000013EE700BF42004FEAE2014FEA11
:1004300031014FEA02701FBF12F07F4393F07F4FEC
:1004400081F06051704732F07F4208BF704793F0EF
:100450007F4F04BF41F40021704730B54FF4607402
:1004600001F0004521F000411CE700BF50EA010205
:1004700008BF704730B54FF000050AE050EA0102AE
:1004800008BF704730B511F0004502D5404261EB1E
:1004900041014FF4806404F132045FEA915C3FF45F
:1004A000D8AE4FF003025FEADC0C18BF03325FEAFC
:1004B000DC0C18BF033202EBDC02C2F1200300FAAD
:1004C00003FC20FA02F001FA03FE40EA0E0021FAD2
:1004D00002F11444BDE600BF70B54FF0FF0C4CF4C0
:1004E000E06C1CEA11541DBF1CEA135594EA0C0F72
:1004F00095EA0C0F00F0DEF82C4481EA030621EAAD
:100500004C5123EA4C5350EA013518BF52EA0335E7
:1005100041F4801143F4801338D0A0FB02CE4FF099
:100520000005E1FB02E506F00042E0FB03E54FF0C9
:100530000006E1FB03569CF0000F18BF4EF0010EC1
:10054000A4F1FF04B6F5007F64F5407404D25FEABD
:100550004E0E6D4146EB060642EAC62141EA555170
:100560004FEAC52040EA5E504FEACE2EB4F1FD0CB2
:1005700088BFBCF5E06F1ED8BEF1004F08BF5FEA30
:10058000500E50F1000041EB045170BD06F00046E2
:1005900046EA010140EA020081EA0301B4EB5C048F
:1005A000C2BFD4EB0C0541EA045170BD41F4801187
:1005B0004FF0000E013C00F3AB8014F1360FDEBFAC
:1005C000002001F0004170BDC4F10004203C35DA88
:1005D0000C341BDC04F11404C4F1200500FA05F30B
:1005E00020FA04F001FA05F240EA020001F00042AC
:1005F00021F0004110EBD37021FA04F642EB060122
:100600005EEA430E08BF20EAD37070BDC4F10C044B
:10061000C4F1200500FA04F320FA05F001FA04F20F
:1006200040EA020001F0004110EBD37041F10001FB
:100630005EEA430E08BF20EAD37070BDC4F1200506
:1006400000FA05F24EEA020E20FA04F301FA05F26E
:1006500043EA020321FA04F001F0004121FA04F216
:1006600020EA020000EBD3705EEA430E08BF20EAE6
:10067000D37070BD94F0000F0FD101F00046400020
:1006800041EB010111F4801F08BF013CF7D041EAA2
:10069000060195F0000F18BF704703F000465200A6
:1006A00043EB030313F4801F08BF013DF7D043EA77
:1006B0000603704794EA0C0F0CEA135518BF95EA2D
:1006C0000C0F0CD050EA410618BF52EA4306D1D1B4
:1006D00081EA030101F000414FF0000070BD50EAD3
:1006E000410606BF1046194652EA430619D094EA5D
:1006F0000C0F02D150EA013613D195EA0C0F05D147
:1007000052EA03361CBF104619460AD181EA03019A
:1007100001F0004141F0FE4141F470014FF0000052
:1007200070BD41F0FE4141F4780170BD70B54FF0ED
:10073000FF0C4CF4E06C1CEA11541DBF1CEA13556D
:1007400094EA0C0F95EA0C0F00F0A7F8A4EB05044F
:1007500081EA030E52EA03354FEA013100F0888046
:100760004FEA03334FF0805545EA131343EA12630F
:100770004FEA022245EA111545EA10654FEA0026C4
:100780000EF000419D4208BF964244F1FD0404F57D
:10079000407402D25B084FEA3202B61A65EB0305D9
:1007A0005B084FEA32024FF480104FF4002CB6EB96
:1007B000020E75EB030E22BFB61A754640EA0C0016
:1007C0005B084FEA3202B6EB020E75EB030E22BF56
:1007D000B61A754640EA5C005B084FEA3202B6EB97
:1007E000020E75EB030E22BFB61A754640EA9C0056
:1007F0005B084FEA3202B6EB020E75EB030E22BF26
:10080000B61A754640EADC0055EA060E18D04FEAE3
:10081000051545EA16754FEA06164FEAC30343EA83
:1008200052734FEAC2025FEA1C1CC0D111F4801F50
:100830000BD141EA00014FF000004FF0004CB6E749
:1008400011F4801F04BF01430020B4F1FD0C88BFE8
:10085000BCF5E06F3FF6AFAEB5EB030C04BFB6EBF3
:10086000020C5FEA500C50F1000041EB045170BDE6
:100870000EF0004E4EEA113114EB5C04C2BFD4EB13
:100880000C0541EA045170BD41F480114FF0000E97
:10089000013C90E645EA060E8DE60CEA135594EA13
:1008A0000C0F08BF95EA0C0F3FF43BAF94EA0C0F16
:1008B0000AD150EA01347FF434AF95EA0C0F7FF48B
:1008C00025AF104619462CE795EA0C0F06D152EADF
:1008D00003353FF4FDAE1046194622E750EA4106C3
:1008E00018BF52EA43067FF4C5AE50EA41047FF4D4
:1008F0000DAF52EA43057FF4EBAE12E74FF0FF3C39
:1009000006E000BF4FF0010C02E000BF4FF0010C09
:100910004DF804CD4FEA410C7FEA6C5C4FEA430C82
:1009200018BF7FEA6C5C1BD001B050EA410C0CBFD1
:1009300052EA430C91EA030F02BF90EA020F002033
:10094000704710F1000F91EA030F58BF994208BF9A
:1009500090422CBFD8176FEAE37040F00100704757
:100960004FEA410C7FEA6C5C02D150EA013C07D1AE
:100970004FEA430C7FEA6C5CD6D152EA033CD3D0F9
:100980005DF8040B704700BF8446104662468C46F3
:100990001946634600E000BF01B5FFF7B7FF002826
:1009A00048BF10F1000F01BD4DF808EDFFF7F4FF4F
:1009B0000CBF012000205DF808FB00BF4DF808EDDA
:1009C000FFF7EAFF34BF012000205DF808FB00BFFD
:1009D0004DF808EDFFF7E0FF94BF012000205DF81F
:1009E00008FB00BF4DF808EDFFF7CEFF94BF0120D4
:1009F00000205DF808FB00BF4DF808EDFFF7C4FFCD
:100A000034BF012000205DF808FB00BF4FEA410C15
:100A10007FEA6C5C02D150EA013C0AD14FEA430CF8
:100A20007FEA6C5C02D152EA033C02D14FF0000035
:100A300070474FF0010070474FEA410212F5001273
:100A400015D211D56FF47873B3EB625212D94FEA15
:100A5000C12343F0004343EA505311F0004F23FAFF
:100A600002F018BF404270474FF00000704750EA54
:100A7000013005D111F0004008BF6FF00040704711
:100A80004FF00000704700BF80B483B000AF7860C3
:100A900000BF0C37BD4680BC7047000080B500AF7A
:100AA00000F028FB00F026F800F0E2F800F068F80B
:100AB00000F0B4F80A4801F079FB0A4B1B781A469B
:100AC000094B134401221946084801F0F0FF4FF486
:100AD0008051074800F0F0FEC82000F06DFBF6E7FB
:100AE00024020020B4020020B80200206C02002082
:100AF000000C014080B590B000AF07F11803282228
:100B00000021184603F0DBFA3B1D00221A605A60F0
:100B10009A60DA601A610123BB614FF48033FB6194
:100B200000233B620123BB6202237B634FF48033CB
:100B3000BB634FF4E013FB6307F11803184600F0A2
:100B4000D5FE0346002B01D000F0FCF80F237B609C
:100B50000223BB600023FB604FF480633B610023F2
:100B60007B613B1D0221184601F042F90346002B30
:100B700001D000F0E7F800BF4037BD4680BD00005F
:100B800080B586B000AF07F1080300221A605A60F2
:100B90009A60DA603B4600221A605A601E4B4FF0A2
:100BA00080421A601C4B40F60F625A601A4B0022BA
:100BB0009A60194B44F61F62DA60174B00221A61E3
:100BC000154B00229A61144801F0A0FA0346002B4D
:100BD00001D000F0B7F84FF48053BB6007F1080371
:100BE00019460D4801F03CFC0346002B01D000F0F3
:100BF000A9F800233B6000237B603B46194606486A
:100C000001F012FE0346002B01D000F09BF800BF5C
:100C10001837BD4680BD00BF2402002080B500AF5C
:100C2000114B124A1A60104B4FF416525A600E4B79
:100C300000229A600C4B0022DA600B4B00221A61F2
:100C4000094B0C225A61084B00229A61064B002284
:100C5000DA61054801F058FE0346002B01D000F090
:100C600071F800BF80BD00BF6C0200200038014059
:100C700080B588B000AF07F1100300221A605A60F7
:100C80009A60DA601E4B9B691D4A43F02003936112
:100C90001B4B9B6903F02003FB60FB68184B9B69AF
:100CA000174A43F008039361154B9B6903F008034F
:100CB000BB60BB68124B9B69114A43F0040393610C
:100CC0000F4B9B6903F004037B607B6801224FF4A8
:100CD00080510C4800F0D8FD4FF480533B61012354
:100CE0007B610023BB610223FB6107F110031946FE
:100CF000044800F045FC00BF2037BD4680BD00BF62
:100D000000100240000C014080B582B000AF786056
:100D10007B681A68084B1B689A4209D10748FFF79D
:100D200017FA03469AB264230449054801F03CFED1
:100D300000BF0837BD4680BD24020020000000200F
:100D40006C02002080B400AF72B600BFFEE7000066
:100D500080B485B000AF154B9B69144A43F0010382
:100D60009361124B9B6903F00103BB60BB680F4B9F
:100D7000DB690E4A43F08053D3610C4BDB6903F00F
:100D800080537B607B680A4B5B68FB60FB6823F0E9
:100D9000E063FB60FB6843F00073FB60044AFB68A0
:100DA000536000BF1437BD4680BC7047001002403E
:100DB0000000014080B584B000AF78607B681B689C
:100DC000B3F1804F13D10C4BDB690B4A43F00103A5
:100DD000D361094BDB6903F00103FB60FB68002270
:100DE00002211C2000F0E3FA1C2000F0FCFA00BFF6
:100DF0001037BD4680BD00BF0010024080B588B0EE
:100E000000AF786007F1100300221A605A609A6000
:100E1000DA607B681B68204A934239D11F4B9B697B
:100E20001E4A43F4804393611C4B9B6903F4804347
:100E3000FB60FB68194B9B69184A43F004039361FC
:100E4000164B9B6903F00403BB60BB684FF400734F
:100E50003B6102237B610323FB6107F11003194609
:100E60000F4800F08DFB4FF480633B6100237B61F2
:100E70000023BB6107F110031946094800F080FB0D
:100E800000220321252000F092FA252000F0ABFA81
:100E900000BF2037BD4680BD003801400010024031
:100EA0000008014080B400AFFEE780B400AFFEE769
:100EB00080B400AFFEE780B400AFFEE780B400AFBF
:100EC000FEE780B400AF00BFBD4680BC704780B471
:100ED00000AF00BFBD4680BC704780B400AF00BF0C
:100EE000BD4680BC704780B500AF00F049F900BF37
:100EF00080BD000080B500AF024801F0A9F900BF35
:100F000080BD00BF2402002080B500AF024801F080
:100F1000F3FD00BF80BD00BF6C02002080B400AFB5
:100F200001231846BD4680BC704780B582B000AF33
:100F30007860396003F016F9034616221A604FF004
:100F4000FF3318460837BD4680BD80B582B000AF7C
:100F500078604FF0FF317868FFF7E7FFFEE780B574
:100F600086B000AFF860B9607A6000237B610AE068
:100F7000AFF300800146BB685A1CBA60CAB21A704F
:100F80007B6901337B617A697B689A42F0DB7B681D
:100F900018461837BD4680BD80B586B000AFF860F2
:100FA000B9607A6000237B6109E0BB685A1CBA60B3
:100FB0001B781846AFF300807B6901337B617A6947
:100FC0007B689A42F1DB7B6818461837BD4680BDC6
:100FD00080B483B000AF78604FF0FF3318460C3711
:100FE000BD4680BC704780B483B000AF7860396084
:100FF0003B684FF400525A60002318460C37BD4638
:1010000080BC704780B483B000AF7860012318467D
:101010000C37BD4680BC704780B485B000AFF86027
:10102000B9607A60002318461437BD4680BC70470B
:1010300080B586B000AF7860144A154BD31A7B6137
:101040007B693B61134B1B68002B02D1114B124A89
:101050001A60104B1A687B6813443A699A4207D2A7
:1010600003F080F803460C221A604FF0FF3309E0CA
:10107000084B1B68FB60074B1A687B681344054AE2
:101080001360FB6818461837BD4680BD005000202D
:10109000000400001C0300207004002080B400AF96
:1010A00000BFBD4680BC7047FFF7F8FF0B480C49F6
:1010B0000C4A002302E0D458C4500433C4188C42B4
:1010C000F9D3094A094C002301E013600432A2421B
:1010D000FBD303F04DF8FFF7E1FC70470000002060
:1010E00008020020046300080802002070040020A9
:1010F000FEE7000080B500AF084B1B68074A43F0CD
:1011000010031360032000F047F90F2000F008F8E7
:10111000FFF71EFE0023184680BD00BF00200240DE
:1011200080B582B000AF7860124B1A68124B1B7802
:1011300019464FF47A73B3FBF1F3B2FBF3F318469D
:1011400000F05FF90346002B01D001230EE07B681D
:101150000F2B0AD8002279684FF0FF3000F027F9F2
:10116000064A7B681360002300E001231846083715
:10117000BD4680BD340000203C0000203800002027
:1011800080B400AF054B1B781A46054B1B6813440F
:10119000034A136000BFBD4680BC70473C0000207E
:1011A0002003002080B400AF024B1B681846BD46E8
:1011B00080BC70472003002080B584B000AF786009
:1011C000FFF7F0FFB8607B68FB60FB68B3F1FF3F9F
:1011D00005D00A4B1B781A46FB681344FB6000BF1E
:1011E000FFF7E0FF0246BB68D31AFA689A42F7D8C5
:1011F00000BF00BF1037BD4680BD00BF3C000020CF
:1012000080B485B000AF78607B6803F00703FB60B3
:101210000C4BDB68BB60BA684FF6FF031340BB6042
:10122000FB681A02BB68134343F0BF6343F4003307
:10123000BB60044ABB68D36000BF1437BD4680BCA6
:10124000704700BF00ED00E080B400AF044BDB68E6
:101250001B0A03F007031846BD4680BC704700BF59
:1012600000ED00E080B483B000AF0346FB7197F956
:101270000730002B0BDBFB7903F01F02064997F9BF
:1012800007305B09012000FA02F241F8232000BF79
:101290000C37BD4680BC704700E100E080B483B0ED
:1012A00000AF03463960FB7197F90730002B0ADB6A
:1012B0003B68DAB20C4997F907301201D2B20B44FD
:1012C00083F800230AE03B68DAB20849FB7903F0AF
:1012D0000F03043B1201D2B20B441A7600BF0C3745
:1012E000BD4680BC704700BF00E100E000ED00E0BB
:1012F00080B489B000AFF860B9607A60FB6803F031
:101300000703FB61FB69C3F10703042B28BF042318
:10131000BB61FB690433062B02D9FB69033B00E088
:1013200000237B614FF0FF32BB6902FA03F3DA431B
:10133000BB681A407B699A404FF0FF317B6901FA24
:1013400003F3D9437B680B40134318462437BD464B
:1013500080BC704780B582B000AF78607B68013B8D
:10136000B3F1807F01D301230FE00A4A7B68013B80
:1013700053600F214FF0FF30FFF790FF054B002225
:101380009A60044B07221A60002318460837BD46AE
:1013900080BD00BF10E000E080B582B000AF786093
:1013A0007868FFF72DFF00BF0837BD4680BD80B5C8
:1013B00086B000AF0346B9607A60FB7300237B619F
:1013C000FFF742FF78617A68B9687869FFF790FFA4
:1013D000024697F90F3011461846FFF75FFF00BF2E
:1013E0001837BD4680BD80B582B000AF0346FB71A3
:1013F00097F907301846FFF735FF00BF0837BD469D
:1014000080BD80B582B000AF78607868FFF7A2FF3A
:10141000034618460837BD4680BD80B485B000AF8E
:1014200078600023FB737B6893F82130DBB2022BDA
:1014300008D07B6804229A637B68002283F820200E
:10144000012320E07B681B681A687B681B6822F018
:101450000E021A607B681B681A687B681B6822F0A2
:1014600001021A607B681A6C7B68DB6B012101FA50
:1014700002F25A607B68012283F821207B680022F7
:1014800083F82020FB7B18461437BD4680BC70478C
:1014900080B584B000AF78600023FB737B6893F85D
:1014A0002130DBB2022B05D07B6804229A63012332
:1014B000FB7351E07B681B681A687B681B6822F02D
:1014C0000E021A607B681B681A687B681B6822F032
:1014D00001021A607B681B68224A934229D07B680C
:1014E0001B68214A934222D07B681B681F4A9342A3
:1014F0001AD07B681B681E4A934212D07B681B6817
:101500001C4A93420AD07B681B681B4A934202D153
:101510004FF480130EE04FF080730BE04FF48033F4
:1015200008E04FF4805305E04FF4807302E010238D
:1015300000E00123114A53607B68012283F82120D7
:101540007B68002283F820207B685B6B002B03D034
:101550007B685B6B78689847FB7B18461037BD4605
:1015600080BD00BF080002401C0002403000024065
:1015700044000240580002406C000240000002405B
:1015800080B48BB000AF7860396000237B620023A9
:101590003B6269E101227B6A02FA03F3FB613B686B
:1015A0001B68FA691340BB61BA69FB699A4240F053
:1015B00058813B685B689A4A93425ED0984A93424E
:1015C00075D8984A934258D0964A93426FD8964A13
:1015D000934252D0944A934269D8944A93424CD051
:1015E000924A934263D8924A934246D0904A934299
:1015F0005DD8122B2AD8122B59D801A252F823F009
:101600007B1600085516000867160008A916000882
:10161000AF160008AF160008AF160008AF16000896
:10162000AF160008AF160008AF160008AF16000886
:10163000AF160008AF160008AF160008AF16000876
:10164000AF1600085D16000871160008794A93422B
:1016500013D02CE03B68DB683B6229E03B68DB6829
:1016600004333B6224E03B68DB6808333B621FE0E5
:101670003B68DB680C333B621AE03B689B68002BDD
:1016800002D104233B6213E03B689B68012B05D128
:1016900008233B627B68FA691A6109E008233B6210
:1016A0007B68FA695A6103E000233B6200E000BFF7
:1016B000BB69FF2B01D87B6801E07B6804337B6149
:1016C000BB69FF2B02D87B6A9B0002E07B6A083B68
:1016D0009B003B617B691A680F213B6901FA03F3A8
:1016E000DB431A40396A3B6901FA03F31A437B6909
:1016F0001A603B685B6803F08053002B00F0B180F8
:101700004D4B9B694C4A43F0010393614A4B9B69E3
:1017100003F00103BB60BB68484A7B6A9B08023345
:1017200052F82330FB607B6A03F003039B000F2217
:1017300002FA03F3DB43FA681340FB607B68404A1C
:10174000934213D07B683F4A93420DD07B683E4A58
:10175000934207D07B683D4A934201D1032306E0C0
:10176000042304E0022302E0012300E000237A6A5C
:1017700002F0030292009340FA681343FB602F4982
:101780007B6A9B080233FA6841F823203B685B6858
:1017900003F48013002B06D02D4B9A682C49BB69AB
:1017A00013438B6006E02A4B9A68BB69DB432849E8
:1017B00013408B603B685B6803F40013002B06D07A
:1017C000234BDA682249BB691343CB6006E0204B08
:1017D000DA68BB69DB431E491340CB603B685B683A
:1017E00003F40033002B06D0194B5A681849BB6923
:1017F00013434B6006E0164B5A68BB69DB43144940
:1018000013404B603B685B6803F48033002B21D0AE
:101810000F4B1A680E49BB6913430B6021E000BFF0
:1018200000003210000031100000221000002110D2
:1018300000001210000011100010024000000140D2
:1018400000080140000C014000100140001401405C
:10185000000401400B4B1A68BB69DB430949134084
:101860000B607B6A01337B623B681A687B6A22FAF1
:1018700003F3002B7FF48EAE00BF00BF2C37BD46B4
:1018800080BC70470004014080B483B000AF786032
:101890000B467B8013467B707B78002B03D07A88C5
:1018A0007B681A6103E07B881A047B681A6100BFB9
:1018B0000C37BD4680BC704780B485B000AF7860FF
:1018C0000B467B807B68DB68FB607A88FB68134093
:1018D0001A04FB68D9437B880B401A437B681A6162
:1018E00000BF1437BD4680BC7047000080B586B08D
:1018F00000AF78607B68002B01D1012372E27B6826
:101900001B6803F00103002B00F08780924B5B689B
:1019100003F00C03042B0CD08F4B5B6803F00C031B
:10192000082B12D18C4B5B6803F48033B3F5803FF6
:101930000BD1894B1B6803F40033002B6CD07B6800
:101940005B68002B68D101234CE27B685B68B3F5D0
:10195000803F06D1804B1B687F4A43F4803313607D
:101960002EE07B685B68002B0CD17B4B1B687A4AAE
:1019700023F480331360784B1B68774A23F4802369
:1019800013601DE07B685B68B3F5A02F0CD1724B30
:101990001B68714A43F4802313606F4B1B686E4AC7
:1019A00043F4803313600BE06B4B1B686A4A23F4EB
:1019B00080331360684B1B68674A23F480231360ED
:1019C0007B685B68002B13D0FFF7ECFB386108E005
:1019D000FFF7E8FB02463B69D31A642B01D90323C6
:1019E00000E25D4B1B6803F40033002BF0D014E0E1
:1019F000FFF7D8FB386108E0FFF7D4FB02463B69EC
:101A0000D31A642B01D90323ECE1534B1B6803F475
:101A10000033002BF0D100E000BF7B681B6803F0AF
:101A20000203002B63D04C4B5B6803F00C03002BCC
:101A30000BD0494B5B6803F00C03082B1CD1464BC1
:101A40005B6803F48033002B16D1434B1B6803F013
:101A50000203002B05D07B681B69012B01D00123F9
:101A6000C0E13D4B1B6823F0F8027B685B69DB003B
:101A7000394913430B603AE07B681B69002B20D087
:101A8000364B01221A60FFF78DFB386108E0FFF743
:101A900089FB02463B69D31A022B01D90323A1E13A
:101AA0002D4B1B6803F00203002BF0D02A4B1B6860
:101AB00023F0F8027B685B69DB00274913430B6066
:101AC00015E0264B00221A60FFF76CFB386108E036
:101AD000FFF768FB02463B69D31A022B01D90323A7
:101AE00080E11D4B1B6803F00203002BF0D17B68E3
:101AF0001B6803F00803002B3AD07B689B69002B1E
:101B000019D0174B01221A60FFF74CFB386108E02F
:101B1000FFF748FB02463B69D31A022B01D9032386
:101B200060E10D4B5B6A03F00203002BF0D0012053
:101B300000F0CEFA1CE00A4B00221A60FFF732FBDD
:101B400038610FE0FFF72EFB02463B69D31A022BE8
:101B500008D9032346E100BF0010024000004242C2
:101B600080044242924B5B6A03F00203002BE9D1EE
:101B70007B681B6803F00403002B00F0A6800023A1
:101B8000FB758B4BDB6903F08053002B0DD1884B29
:101B9000DB69874A43F08053D361854BDB6903F0EF
:101BA0008053BB60BB680123FB75824B1B6803F449
:101BB0008073002B18D17F4B1B687E4A43F48073DF
:101BC0001360FFF7EFFA386108E0FFF7EBFA02461F
:101BD0003B69D31A642B01D9032303E1754B1B68BE
:101BE00003F48073002BF0D07B68DB68012B06D1F7
:101BF0006F4B1B6A6E4A43F0010313622DE07B6852
:101C0000DB68002B0CD16A4B1B6A694A23F0010385
:101C10001362674B1B6A664A23F0040313621CE0DD
:101C20007B68DB68052B0CD1614B1B6A604A43F073
:101C3000040313625E4B1B6A5D4A43F001031362A7
:101C40000BE05B4B1B6A5A4A23F001031362584BAB
:101C50001B6A574A23F0040313627B68DB68002B7E
:101C600015D0FFF79FFA38610AE0FFF79BFA0246AA
:101C70003B69D31A41F28832934201D90323B1E080
:101C80004B4B1B6A03F00203002BEED014E0FFF76E
:101C900089FA38610AE0FFF785FA02463B69D31AF0
:101CA00041F28832934201D903239BE0404B1B6AE7
:101CB00003F00203002BEED1FB7D012B05D13C4B41
:101CC000DB693B4A23F08053D3617B68DB69002BDF
:101CD00000F08780364B5B6803F00C03082B61D063
:101CE0007B68DB69022B46D1334B00221A60FFF779
:101CF00059FA386108E0FFF755FA02463B69D31AF2
:101D0000022B01D903236DE0294B1B6803F00073FC
:101D1000002BF0D17B681B6AB3F5803F08D1244BC0
:101D20005B6823F400327B689B68214913434B6056
:101D30001F4B5B6823F474127B68196A7B685B6ACB
:101D40000B431B4913434B601B4B01221A60FFF7E7
:101D500029FA386108E0FFF725FA02463B69D31AF1
:101D6000022B01D903233DE0114B1B6803F00073E4
:101D7000002BF0D035E0104B00221A60FFF712FA6A
:101D8000386108E0FFF70EFA02463B69D31A022BCE
:101D900001D9032326E0064B1B6803F00073002BD8
:101DA000F0D11EE07B68DB69012B07D1012319E02C
:101DB0000010024000700040600042420B4B5B6824
:101DC000FB60FB6803F480327B681B6A9A4206D191
:101DD000FB6803F470127B685B6A9A4201D00123AE
:101DE00000E0002318461837BD4680BD00100240B1
:101DF00080B584B000AF786039607B68002B01D17A
:101E00000123D0E06A4B1B6803F007033A689A424B
:101E100010D9674B1B6823F0070265493B681343E1
:101E20000B60634B1B6803F007033A689A4201D0CA
:101E30000123B8E07B681B6803F00203002B20D06D
:101E40007B681B6803F00403002B05D0594B5B68CB
:101E5000584A43F4E06353607B681B6803F008034F
:101E6000002B05D0534B5B68524A43F460535360D8
:101E7000504B5B6823F0F0027B689B684D4913432D
:101E80004B607B681B6803F00103002B40D07B682C
:101E90005B68012B07D1474B1B6803F40033002B11
:101EA00015D101237FE07B685B68022B07D1414B92
:101EB0001B6803F00073002B09D1012373E03D4B35
:101EC0001B6803F00203002B01D101236BE0394BA7
:101ED0005B6823F003027B685B68364913434B6001
:101EE000FFF760F9F8600AE0FFF75CF90246FB686B
:101EF000D31A41F28832934201D9032353E02D4B88
:101F00005B6803F00C027B685B689B009A42EBD134
:101F1000274B1B6803F007033A689A4210D2244B00
:101F20001B6823F0070222493B6813430B60204BD8
:101F30001B6803F007033A689A4201D0012332E09C
:101F40007B681B6803F00403002B08D0194B5B6807
:101F500023F4E0627B68DB68164913434B607B68BF
:101F60001B6803F00803002B09D0124B5B6823F4B5
:101F700060527B681B69DB000E4913434B6000F025
:101F800021F802460B4B5B681B0903F00F030A495B
:101F9000CB5C22FA03F3094A1360094B1B6818460D
:101FA000FFF7BEF8002318461037BD4680BD00BFBE
:101FB0000020024000100240605F00083400002052
:101FC0003800002080B487B000AF0023FB600023FE
:101FD000BB6000237B6100237B6000233B611E4BC1
:101FE0005B68FB60FB6803F00C03042B02D0082B3A
:101FF00003D027E0194B3B6127E0FB689B0C03F003
:102000000F03174AD35C7B60FB6803F48033002B1B
:1020100010D0114B5B685B0C03F00103114AD35CD9
:10202000BB607B680D4A03FB02F2BB68B2FBF3F3B3
:102030007B6104E07B680C4A02FB03F37B617B69F4
:102040003B6102E0054B3B6100BF3B6918461C3712
:10205000BD4680BC704700BF0010024000127A00ED
:10206000785F0008885F000800093D0080B400AF79
:10207000024B1B681846BD4680BC704734000020E8
:1020800080B500AFFFF7F2FF0246054B5B681B0A05
:1020900003F007030349CB5C22FA03F3184680BD23
:1020A00000100240705F000880B500AFFFF7DEFF50
:1020B0000246054B5B68DB0A03F007030349CB5C70
:1020C00022FA03F3184680BD00100240705F00083A
:1020D00080B485B000AF78600A4B1B680A4AA2FB47
:1020E00003235B0A7A6802FB03F3FB6000BFFB6813
:1020F0005A1EFA60002BF9D100BF00BF1437BD464D
:1021000080BC704734000020D34D621080B582B08F
:1021100000AF78607B68002B01D1012341E07B6830
:1021200093F83D30DBB2002B06D17B68002283F8A8
:102130003C207868FEF73EFE7B68022283F83D2053
:102140007B681A687B6804331946104600F074FAFD
:102150007B68012283F846207B68012283F83E20B9
:102160007B68012283F83F207B68012283F84020AE
:102170007B68012283F841207B68012283F842209A
:102180007B68012283F843207B68012283F8442086
:102190007B68012283F845207B68012283F83D207B
:1021A000002318460837BD4680BD000080B485B0C6
:1021B00000AF78607B6893F83D30DBB2012B01D033
:1021C00001233AE07B68022283F83D207B681B688C
:1021D000DA687B681B6842F00102DA607B681B6882
:1021E000184A93420ED07B681B68B3F1804F09D028
:1021F0007B681B68144A934204D07B681B68134AAF
:10220000934211D17B681B689B6803F00703FB6056
:10221000FB68062B10D07B681B681A687B681B68FC
:1022200042F001021A6007E07B681B681A687B684D
:102230001B6842F001021A60002318461437BD469D
:1022400080BC7047002C01400004004000080040A2
:1022500080B582B000AF78607B681B681B6903F0B3
:102260000203022B22D17B681B68DB6803F00203A8
:10227000022B1BD17B681B686FF002021A617B681E
:1022800001221A777B681B689B6903F00303002B0C
:1022900003D0786800F0B4F905E0786800F0A7F999
:1022A000786800F0B6F97B6800221A777B681B68B3
:1022B0001B6903F00403042B22D17B681B68DB68D5
:1022C00003F00403042B1BD17B681B686FF004022E
:1022D0001A617B6802221A777B681B689B6903F48A
:1022E0004073002B03D0786800F08AF905E0786825
:1022F00000F07DF9786800F08CF97B6800221A778D
:102300007B681B681B6903F00803082B22D17B68DC
:102310001B68DB6803F00803082B1BD17B681B6874
:102320006FF008021A617B6804221A777B681B68C9
:10233000DB6903F00303002B03D0786800F060F939
:1023400005E0786800F053F9786800F062F97B687E
:1023500000221A777B681B681B6903F01003102B9F
:1023600022D17B681B68DB6803F01003102B1BD1A4
:102370007B681B686FF010021A617B6808221A776D
:102380007B681B68DB6903F44073002B03D078681B
:1023900000F036F905E0786800F029F9786800F077
:1023A00038F97B6800221A777B681B681B6903F089
:1023B0000103012B0ED17B681B68DB6803F001036E
:1023C000012B07D17B681B686FF001021A617868E6
:1023D000FEF79AFC7B681B681B6903F08003802B67
:1023E0000ED17B681B68DB6803F08003802B07D16C
:1023F0007B681B686FF080021A61786800F07BFAD6
:102400007B681B681B6903F04003402B0ED17B687F
:102410001B68DB6803F04003402B07D17B681B6817
:102420006FF040021A61786800F0FCF87B681B6866
:102430001B6903F02003202B0ED17B681B68DB682F
:1024400003F02003202B07D17B681B686FF020026C
:102450001A61786800F046FA00BF0837BD4680BDB3
:1024600080B584B000AF786039600023FB737B686F
:1024700093F83C30012B01D10223B4E07B680122A8
:1024800083F83C207B68022283F83D207B681B6830
:102490009B68BB60BB6823F07703BB60BB6823F419
:1024A0007F43BB607B681B68BA689A603B681B68A7
:1024B000B3F5005F3ED0B3F5005F00F28780B3F55F
:1024C000805F00F08680B3F5805F7FD8702B1AD0D4
:1024D000702B7BD8602B50D0602B77D8502B3CD002
:1024E000502B73D8402B58D0402B6FD8302B64D052
:1024F000302B6BD8202B60D0202B67D8002B5CD0E2
:10250000102B5AD062E07B6818683B6899683B687A
:102510005A683B68DB6800F068F97B681B689B6859
:10252000BB60BB6843F07703BB607B681B68BA681D
:102530009A604FE07B6818683B6899683B685A6806
:102540003B68DB6800F051F97B681B689A687B6820
:102550001B6842F480429A603CE07B6818683B68E4
:1025600059683B68DB681A4600F0C8F87B681B684E
:102570005021184600F01FF92CE07B6818683B6872
:1025800059683B68DB681A4600F0E6F87B681B6810
:102590006021184600F00FF91CE07B6818683B6862
:1025A00059683B68DB681A4600F0A8F87B681B682E
:1025B0004021184600F0FFF80CE07B681A683B6881
:1025C0001B681946104600F0F6F803E00123FB7380
:1025D00000E000BF7B68012283F83D207B68002279
:1025E00083F83C20FB7B18461037BD4680BD80B485
:1025F00083B000AF786000BF0C37BD4680BC704729
:1026000080B483B000AF786000BF0C37BD4680BC9B
:10261000704780B483B000AF786000BF0C37BD4610
:1026200080BC704780B483B000AF786000BF0C37C7
:10263000BD4680BC7047000080B485B000AF7860B4
:1026400039607B681B68FB607B68294A93420BD02A
:102650007B68B3F1804F07D07B68264A934203D052
:102660007B68254A934208D1FB6823F07003FB6026
:102670003B685B68FA681343FB607B681C4A9342C3
:102680000BD07B68B3F1804F07D07B68194A934227
:1026900003D07B68184A934208D1FB6823F4407347
:1026A000FB603B68DB68FA681343FB60FB6823F060
:1026B00080023B685B691343FB607B68FA681A60C1
:1026C0003B689A687B68DA623B681A687B689A6242
:1026D0007B68074A934203D13B681A697B681A6397
:1026E0007B6801225A6100BF1437BD4680BC704729
:1026F000002C0140000400400008004080B487B076
:1027000000AFF860B9607A60FB681B6A7B61FB68A8
:102710001B6A23F00102FB681A62FB689B693B613C
:102720003B6923F0F0033B617B681B013A6913436B
:102730003B617B6923F00A037B617A69BB681343C1
:102740007B61FB683A699A61FB687A691A6200BF2B
:102750001C37BD4680BC704780B487B000AFF860BE
:10276000B9607A60FB681B6A7B61FB681B6A23F0B7
:102770001002FB681A62FB689B693B613B6923F4AA
:1027800070433B617B681B033A6913433B617B6980
:1027900023F0A0037B61BB681B017A6913437B6153
:1027A000FB683A699A61FB687A691A6200BF1C3754
:1027B000BD4680BC704780B485B000AF786039609A
:1027C0007B689B68FB60FB6823F07003FB603A68E2
:1027D000FB68134343F00703FB607B68FA689A6069
:1027E00000BF1437BD4680BC704780B487B000AFCF
:1027F000F860B9607A603B60FB689B687B617B69CD
:1028000023F47F437B613B681A027B681A43BB68F1
:1028100013437A6913437B61FB687A699A6000BF4E
:102820001C37BD4680BC704780B485B000AF78606F
:1028300039607B6893F83C30012B01D1022346E0DC
:102840007B68012283F83C207B68022283F83D20CC
:102850007B681B685B68FB607B681B689B68BB6070
:10286000FB6823F07003FB603B681B68FA68134346
:10287000FB607B681B68FA685A607B681B68164AB5
:1028800093420ED07B681B68B3F1804F09D07B6800
:102890001B68124A934204D07B681B68104A93421B
:1028A0000CD1BB6823F08003BB603B685B68BA68EF
:1028B0001343BB607B681B68BA689A607B6801221F
:1028C00083F83D207B68002283F83C2000231846D3
:1028D0001437BD4680BC7047002C01400004004006
:1028E0000008004080B483B000AF786000BF0C37B0
:1028F000BD4680BC704780B483B000AF786000BF35
:102900000C37BD4680BC704780B582B000AF7860A0
:102910007B68002B01D1012342E07B6893F84130B2
:10292000DBB2002B06D17B68002283F84020786858
:10293000FEF764FA7B68242283F841207B681B68D9
:10294000DA687B681B6822F40052DA60786800F06D
:10295000C5FD7B681B681A697B681B6822F490427E
:102960001A617B681B685A697B681B6822F02A021F
:102970005A617B681B68DA687B681B6842F4005206
:10298000DA607B6800225A647B68202283F8412049
:102990007B68202283F842207B6800225A63002350
:1029A00018460837BD4680BD80B58AB002AFF860D2
:1029B000B9603B601346FB8000237B61FB6893F8A2
:1029C0004130DBB2202B6DD1BB68002B02D0FB88DD
:1029D000002B01D1012366E0FB6800225A64FB68EA
:1029E000212283F84120FEF7DDFB7861FB68FA883D
:1029F0009A84FB68FA88DA84FB689B68B3F5805F89
:102A000008D1FB681B69002B04D10023FB61BB6864
:102A1000BB6103E0BB68FB610023BB612AE03B684C
:102A200000937B6900228021F86800F014FB0346C4
:102A3000002B01D0032336E0FB69002B0BD1BB69CF
:102A40001B881A46FB681B68C2F308025A60BB6900
:102A50000233BB6107E0FB691A78FB681B685A60A8
:102A6000FB690133FB61FB68DB8C9BB2013B9AB2D3
:102A7000FB68DA84FB68DB8C9BB2002BCFD13B6810
:102A800000937B6900224021F86800F0E4FA0346D5
:102A9000002B01D0032306E0FB68202283F84120AD
:102AA000002300E0022318462037BD4680BD80B5D4
:102AB00084B000AFF860B9601346FB80FB6893F800
:102AC0004230DBB2202B12D1BB68002B02D0FB8836
:102AD000002B01D101230BE0FB6800221A63FB8865
:102AE0001A46B968F86800F024FB034600E00223A8
:102AF00018461037BD4680BD80B5BAB000AF7860CB
:102B00007B681B681B68C7F8E4307B681B68DB6860
:102B1000C7F8E0307B681B685B69C7F8DC300023CE
:102B2000C7F8D8300023C7F8D430D7F8E43003F022
:102B30000F03C7F8D830D7F8D830002B0FD1D7F80B
:102B4000E43003F02003002B09D0D7F8E03003F085
:102B50002003002B03D0786800F001FC5BE2D7F87B
:102B6000D830002B00F0DE80D7F8DC3003F0010312
:102B7000002B06D1D7F8E03003F49073002B00F05F
:102B8000D180D7F8E43003F00103002B0BD0D7F845
:102B9000E03003F48073002B05D07B685B6C43F05E
:102BA00001027B685A64D7F8E43003F00403002B79
:102BB0000BD0D7F8DC3003F00103002B05D07B6885
:102BC0005B6C43F002027B685A64D7F8E43003F090
:102BD0000203002B0BD0D7F8DC3003F00103002BED
:102BE00005D07B685B6C43F004027B685A64D7F8BD
:102BF000E43003F00803002B11D0D7F8E03003F0E5
:102C00002003002B05D1D7F8DC3003F00103002BA3
:102C100005D07B685B6C43F008027B685A647B6874
:102C20005B6C002B00F0F281D7F8E43003F0200356
:102C3000002B08D0D7F8E03003F02003002B02D09F
:102C4000786800F08CFB7B681B685B6903F04003CD
:102C5000002B14BF01230023DBB2C7F8D4307B68FC
:102C60005B6C03F00803002B03D1D7F8D430002BA2
:102C70004FD0786800F096FA7B681B685B6903F0B8
:102C80004003002B41D07B681B681433C7F89C308D
:102C9000D7F89C3053E8003FC7F89830D7F8983001
:102CA00023F04003C7F8D0307B681B681433D7F893
:102CB000D020C7F8A820C7F8A430D7F8A410D7F8B8
:102CC000A82041E80023C7F8A030D7F8A030002B97
:102CD000D9D17B68DB6B002B13D07B68DB6B7E4A22
:102CE0005A637B68DB6B1846FEF7D2FB0346002B6A
:102CF00016D07B68DB6B5B6B7A68D26B10469847AB
:102D00000EE0786800F093F90AE0786800F08FF937
:102D100006E0786800F08BF97B6800225A6475E160
:102D200000BF73E17B681B6B012B40F04F81D7F82C
:102D3000E43003F01003002B00F04881D7F8E030B6
:102D400003F01003002B00F041810023BB607B687F
:102D50001B681B68BB607B681B685B68BB60BB68EB
:102D60007B681B685B6903F04003002B00F0B680B2
:102D70007B68DB6B1B685B68A7F8BE30B7F8BE30BA
:102D8000002B00F045817B689B8DB7F8BE209A42EE
:102D900080F03E817B68B7F8BE20DA857B68DB6B0C
:102DA0009B69202B00F088807B681B680C33C7F878
:102DB0008830D7F8883053E8003FC7F88430D7F818
:102DC000843023F48073C7F8B8307B681B680C33F9
:102DD000D7F8B820C7F89420C7F89030D7F89010EB
:102DE000D7F8942041E80023C7F88C30D7F88C300E
:102DF000002BD9D17B681B6814337B677B6F53E84A
:102E0000003F3B673B6F23F00103C7F8B4307B689A
:102E10001B681433D7F8B420C7F88020FB67F96F1C
:102E2000D7F8802041E80023BB67BB6F002BE1D1BE
:102E30007B681B6814333B663B6E53E8003FFB65C1
:102E4000FB6D23F04003C7F8B0307B681B68143378
:102E5000D7F8B020FA66BB66B96EFA6E41E8002377
:102E60007B667B6E002BE3D17B68202283F84220B7
:102E70007B6800221A637B681B680C33FB64FB6C65
:102E800053E8003FBB64BB6C23F01003C7F8AC30C1
:102E90007B681B680C33D7F8AC20BA657B65796D0D
:102EA000BA6D41E800233B653B6D002BE3D17B68A5
:102EB000DB6B1846FEF7B1FA7B6802225A637B6827
:102EC0009A8D7B68DB8D9BB2D31A9BB219467868CA
:102ED00000F0B6F89CE000BF693200087B689A8D6C
:102EE0007B68DB8D9BB2D31AA7F8CE307B68DB8D75
:102EF0009BB2002B00F08E80B7F8CE30002B00F094
:102F000089807B681B680C33BB63BB6B53E8003F55
:102F10007B637B6B23F49073C7F8C8307B681B68B6
:102F20000C33D7F8C8207A643B64396C7A6C41E87A
:102F30000023FB63FB6B002BE3D17B681B6814331E
:102F40007B627B6A53E8003F3B623B6A23F00103EC
:102F5000C7F8C4307B681B681433D7F8C4203A63C1
:102F6000FB62F96A3A6B41E80023BB62BB6A002B43
:102F7000E3D17B68202283F842207B6800221A6319
:102F80007B681B680C333B613B6953E8003FFB6087
:102F9000FB6823F01003C7F8C0307B681B680C3354
:102FA000D7F8C020FA61BB61B969FA6941E800232A
:102FB0007B617B69002BE3D17B6802225A63B7F8FF
:102FC000CE301946786800F03BF823E0D7F8E430BB
:102FD00003F08003002B09D0D7F8E03003F0800322
:102FE000002B03D0786800F053F914E0D7F8E430F0
:102FF00003F04003002B0ED0D7F8E03003F040037D
:10300000002B08D0786800F092F904E000BF02E0DD
:1030100000BF00E000BFE837BD4680BD80B483B08C
:1030200000AF786000BF0C37BD4680BC704780B4ED
:1030300083B000AF786000BF0C37BD4680BC7047DE
:1030400080B483B000AF78600B467B8000BF0C3744
:10305000BD4680BC704780B590B000AFF860B960E5
:103060003B601346FB7150E0BB6CB3F1FF3F4CD0AB
:10307000BB6C002B07D0FEF795F802463B68D31ACD
:10308000BA6C9A4241D2FB681B680C33BB62BB6AC4
:1030900053E8003F7B627B6A23F4D073FB63FB68D9
:1030A0001B680C33FA6B7A633B63396B7A6B41E8CC
:1030B0000023FB62FB6A002BE5D1FB681B6814331D
:1030C0007B617B6953E8003F3B613B6923F001036F
:1030D000BB63FB681B681433BA6B3A62FB61F96926
:1030E0003A6A41E80023BB61BB69002BE5D1FB686C
:1030F000202283F84120FB68202283F84220FB68CD
:10310000002283F8402003230FE0FB681B681A6845
:10311000BB681340BA689A420CBF01230023DBB29C
:103120001A46FB799A429FD0002318464037BD4685
:1031300080BD80B485B000AFF860B9601346FB80F5
:10314000FB68BA689A62FB68FA889A85FB68FA8815
:10315000DA85FB6800225A64FB68222283F8422049
:10316000FB681B69002B07D0FB681B68DA68FB68EB
:103170001B6842F48072DA60FB681B685A69FB685E
:103180001B6842F001025A61FB681B68DA68FB6841
:103190001B6842F02002DA60002318461437BD464F
:1031A00080BC704780B495B000AF78607B681B68C6
:1031B0000C337B637B6B53E8003F3B633B6B23F437
:1031C0009073FB647B681B680C33FA6C3A64FB6396
:1031D000F96B3A6C41E80023BB63BB6B002BE5D174
:1031E0007B681B6814333B623B6A53E8003FFB611A
:1031F000FB6923F00103BB647B681B681433BA6C62
:10320000FA62BB62B96AFA6A41E800237B627B6AB0
:10321000002BE5D17B681B6B012B19D17B681B68E8
:103220000C33FB60FB6853E8003FBB60BB6823F0D6
:1032300010037B647B681B680C337A6CBA617B611A
:103240007969BA6941E800233B613B69002BE5D10C
:103250007B68202283F842207B6800221A6300BF2B
:103260005437BD4680BC704780B584B000AF7860ED
:103270007B685B6AFB60FB680022DA85FB680022E2
:10328000DA84F868FFF7D3FE00BF1037BD4680BD73
:1032900080B485B000AF78607B6893F84130DBB2D2
:1032A000212B3ED17B689B68B3F5805F14D17B688E
:1032B0001B69002B10D17B681B6AFB60FB681B88B5
:1032C0001A467B681B68C2F308025A607B681B6A57
:1032D0009A1C7B681A6208E07B681B6A591C7A6832
:1032E00011621A787B681B685A607B68DB8C9BB222
:1032F000013B9BB27A681946D184002B0FD17B68C1
:103300001B68DA687B681B6822F08002DA607B68E1
:103310001B68DA687B681B6842F04002DA600023B1
:1033200000E0022318461437BD4680BC704780B5C4
:1033300082B000AF78607B681B68DA687B681B68C6
:1033400022F04002DA607B68202283F8412078680E
:10335000FFF764FE002318460837BD4680BD80B5E0
:103360008CB000AF78607B6893F84230DBB2222BE0
:1033700040F0AE807B689B68B3F5805F17D17B68B7
:103380001B69002B13D10023FB627B689B6ABB6225
:103390007B681B685B689BB2C3F308039AB2BB6A85
:1033A0001A807B689B6A9A1C7B689A6226E07B681D
:1033B0009B6AFB620023BB627B689B68B3F5805FFE
:1033C00007D07B689B68002B0AD17B681B69002BA8
:1033D00006D17B681B685B68DAB2FB6A1A7008E08A
:1033E0007B681B685B68DBB203F07F03DAB2FB6AC1
:1033F0001A707B689B6A5A1C7B689A627B68DB8DBB
:103400009BB2013B9BB27A681946D185002B5DD1F6
:103410007B681B68DA687B681B6822F02002DA6030
:103420007B681B68DA687B681B6822F48072DA604C
:103430007B681B685A697B681B6822F001025A612D
:103440007B68202283F842207B6800225A637B68D5
:103450001B6B012B35D17B6800221A637B681B68CC
:103460000C337B617B6953E8003F3B613B6923F090
:1034700010037B627B681B680C337A6A3A62FB61DB
:10348000F9693A6A41E80023BB61BB69002BE5D1C9
:103490007B681B681B6803F01003102B0AD1002304
:1034A000FB607B681B681B68FB607B681B685B6854
:1034B000FB60FB687B689B8D19467868FFF7C0FD51
:1034C00002E07868FDF7E0FA002302E0002300E064
:1034D000022318463037BD4680BD000080B584B059
:1034E00000AF78607B681B681B6923F440517B68E0
:1034F000DA687B681B680A431A617B689A687B6894
:103500001B691A437B685B691343BB607B681B685C
:10351000DB6823F4B05323F00C037A681268B968AF
:103520000B43D3607B681B685B6923F440717B6845
:103530009A697B681B680A435A617B681B682C4A3E
:10354000934203D1FEF7B0FDF86002E0FEF798FD6C
:10355000F860FA6813469B0013449A001A447B688B
:103560005B689B00B2FBF3F3224AA2FB03235B09D7
:103570001901FA6813469B0013449A001A447B68A9
:103580005B689B00B2FBF3F21A4BA3FB02035B09DF
:10359000642000FB03F3D31A1B013233154AA2FB4C
:1035A00003235B0903F0F0031944FA6813469B00F8
:1035B00013449A001A447B685B689B00B2FBF3F2E9
:1035C0000C4BA3FB02035B09642000FB03F3D31A3B
:1035D0001B013233074AA2FB03235B0903F00F02EE
:1035E0007B681B680A449A6000BF1037BD4680BDE7
:1035F000003801401F85EB51002B2DE9F0471F4695
:10360000BBBF03F100431F4600232D2388B014469F
:10361000129A109D1370149BDDF84CA023F0200823
:10362000B8F1460F05D0B8F1450F00D1013502239E
:1036300000E0032307AA049206AACDE902A2CDE97D
:10364000003522463B4600F053FEB8F1470F0646D0
:1036500002D1119BDB0722D5B8F1460F06EB050915
:1036600010D13378302B0AD100220023204639466E
:10367000FDF79AF918B9C5F10105CAF80050DAF852
:10368000003099440022002320463946FDF78CF98A
:1036900008B1CDF81C903022079B4B4507D330462C
:1036A000079B159A9B1B136008B0BDE8F087591C57
:1036B00007911A70F0E70346F7B5002903F8022BCB
:1036C000B6BF2D222B224942092942702ADD0DF175
:1036D000070217460A2691FBF6F5944606FB1514D9
:1036E00030340CF8014C0C46632C294602F1FF32B1
:1036F000F1DC3031ACF1020402F8011C2246411C1D
:10370000BA420AD30DF10902A2EB0C02BC4288BFF7
:1037100000221344181A03B0F0BD12F8015B01F83F
:10372000015FEDE7302330318370C170031DF1E795
:103730002DE9F04F91B00C46DDF8688016461F4623
:10374000054600F0C5FC036818460993FCF700FD28
:1037500000230E93D8F800300A90073323F00703B4
:1037600003F1080294F81890D4F800B0C8F80020CB
:10377000D3E900A852464346C4E9122328F0004387
:103780000B934FF0FF3250469C4B0B99FDF73EF9DF
:1037900070BB4FF0FF325046984B0B99FDF718F96C
:1037A00030BB0022002350464146FDF707F910B117
:1037B0002D2384F84330924A924BB9F1470F94BFBE
:1037C0009046984603234FF0000A23612BF0040330
:1037D000236033462146284600970FAA00F0D6F909
:1037E000013040F090804FF0FF3011B0BDE8F08F15
:1037F0005246434650464146FDF708F948B1B8F1F4
:10380000000FB8BF2D23804AB8BF84F843307F4BE8
:10381000D3E7636809F0DF015A1C42D106236360D5
:10382000002206920EAACDE904920DAA4BF4806301
:1038300003920DF13302CDE90132236063685246F1
:103840000093284643460B91FFF7D6FE0B9980461E
:1038500047290D9908D1C81C02DB6368994240DDF5
:10386000A9F102095FFA89F9B9F1650F1FD84A4633
:10387000013904F150000D91FFF71DFF0E9A8246A9
:103880001318012A236102DC2268D20701D5013313
:1038900023619DF83330002B9BD02D2384F84330D7
:1038A00097E74729BCD1002BBAD10123B7E7B9F17B
:1038B000660F18D1002963680BDD216113B92268F6
:1038C000D00702D501330B4423614FF0000AA165F4
:1038D000DFE713B92268D20701D50233F4E70123E9
:1038E000F2E74FF067090E9B994205DB23682161DF
:1038F000D807EAD54B1CE7E70029CCBF0122C1F16C
:1039000002021344E0E723685A0507D423694246BC
:1039100031462846B84701302BD164E7B9F1650F2D
:1039200040F2DD80D4E9120100220023FDF73CF8CB
:10393000002833D0012331462846354AB8470130A4
:103940003FF451AFDDE90D239A4202DB2368D8072B
:103950000FD5DDE9092331462846B84701303FF449
:1039600042AF4FF0000804F11A090E9B013B43459A
:1039700009DC23689B0700F10481E0680F9B9842F3
:10398000B8BF184631E701234A4631462846B847B2
:1039900001303FF428AF08F10108E6E70D9B002B4A
:1039A00038DC012331462846194AB84701303FF434
:1039B0001AAFDDE90D32134302D12368D907D8D5F8
:1039C000DDE9092331462846B84701303FF40BAF03
:1039D0004FF0000904F11A0A0D9B5B424B4501DCD4
:1039E0000E9B94E70123524631462846B8470130E2
:1039F0003FF4F9AE09F10109EEE700BFFFFFEF7FE9
:103A00008A5F00088E5F0008925F0008965F0008DA
:103A10009A5F00080E9AA36D9A42A8BF1A46002A20
:103A2000914637DC4FF0000B29EAE97904F11A02DC
:103A3000D4F858A0AAEB09035B4533DCDDE90D237C
:103A40009A423BDB2368DA0738D4DDE90D32A2EB7A
:103A50000309A2EB0A029145A8BF9146B9F1000FF4
:103A600034DC4FF0000829EAE97904F11A0ADDE9AB
:103A70000D239B1AA3EB090343457FF77AAF01237C
:103A8000524631462846B84701303FF4ACAE08F103
:103A90000108ECE71346314642462846B847013054
:103AA000C0D1A0E60123314628460B92B847013029
:103AB0003FF499AE0B9A0BF1010BB9E73146DDE902
:103AC00009232846B8470130BFD18CE64B46314622
:103AD000284608EB0A02B8470130C2D183E60E9AA5
:103AE000012A01DCDB0739D501234246314628464D
:103AF000B84701303FF477AEDDE909233146284667
:103B0000B84701303FF46FAED4E912010022002320
:103B1000DDF83890FCF748FFD8B909F1FF3308F118
:103B2000010231462846B84701300ED15BE6012339
:103B30004A4631462846B84701303FF454AE08F1B2
:103B400001080E9B013B4345F1DC534604F1500252
:103B5000DEE64FF0000804F11A09F2E701234246BD
:103B6000DFE701234A4631462846B84701303FF493
:103B70003AAE08F10108E3680F995B1A4345F0DC9F
:103B8000FBE64FF0000804F11909F4E72DE9F047CE
:103B9000164699468A680B6907469342B8BF134692
:103BA000336091F843200C46DDF820800AB10133E0
:103BB00033602368990642BF336802333360256857
:103BC00015F0060506D104F1190AE36832689B1A5C
:103BD000AB422BDC94F84320131E226818BF01234C
:103BE000920630D44946384604F14302C0470130BA
:103BF00023D02368226903F00603042B14BF002599
:103C000033684FF0000608BFE56804F11A0408BFE6
:103C1000ED1A54F8123C08BF25EAE5759342C4BF7B
:103C20009B1AED18B5421AD1002008E00123524634
:103C300049463846C047013003D14FF0FF30BDE858
:103C4000F0870135C1E73020E11881F843005A1CA4
:103C500094F845102244023382F84310C2E701234E
:103C6000224649463846C0470130E6D00136D9E7FA
:103C70002DE9FF470F7E9146782F80460C469A46E5
:103C80000C9D01F1430207D8622F0AD8002F00F0E3
:103C9000D580582F00F0C18004F1420584F84270AD
:103CA0003AE0A7F16303152BF6D801A151F823F0F0
:103CB000093D00081D3D0008993C0008993C00089A
:103CC000993C0008993C00081D3D0008993C0008FB
:103CD000993C0008993C0008993C0008233E0008E4
:103CE000493D0008DD3D0008993C0008993C00086A
:103CF000453E0008993C0008493D0008993C0008F1
:103D0000993C0008E53D00082B681A1D1B682A60D5
:103D100004F1420584F842300123A0E020682B68BA
:103D2000070603F10401296001D51E6803E0460679
:103D3000FBD5B3F90060002E03DA2D23764284F818
:103D400043300A23594812E02B682068191D296066
:103D5000050601D51E6802E04106FBD51E886F2FBF
:103D60000CBF08230A235148002184F843106568DA
:103D7000002DA8BF2168A560A4BF21F00401216027
:103D80000EB9002D4BD01546B6FBF3F103FB1167BE
:103D9000C75D05F8017D3746BB420E46F4D9082BB6
:103DA0000BD12368DE0708D5236961689942DEBF1D
:103DB000302305F8013C05F1FF35521B22614B46CB
:103DC00021464046CDF800A003AAFFF7DFFE0130F0
:103DD0004AD14FF0FF3004B0BDE8F087236843F0CC
:103DE000200323607827324884F8457023682968C7
:103DF0001F0651F8046B02D45F0648BFB6B2DF0756
:103E000048BF43F02003296048BF23601EB92368E0
:103E100023F0200323601023A6E72448E4E7154697
:103E2000BDE72B682668181D6169286035061B6888
:103E300001D5196002E07006FBD5198000231546F4
:103E40002361BCE72B6800211A1D2A601D68626887
:103E5000284600F0B4F908B1401B60606368236134
:103E6000002384F84330AAE72A464946404623699E
:103E7000D0470130ADD023689B0713D4E068039B83
:103E80009842B8BF1846A6E7012332464946404645
:103E9000D04701309DD00135E36803995B1AAB42EE
:103EA000F2DCEBE7002504F11906F5E79C5F00085A
:103EB000AD5F0008002310B50446C0E90033C0E937
:103EC0000433836081814366C2818361194608227D
:103ED0005C3000F0F4F80D4B246263620C4BA3627B
:103EE0000C4BE3620C4B23630C4B9C4206D003F15A
:103EF0006802944202D0D0339C4205D104F15800AC
:103F0000BDE8104000F058B910BD00BF39400008AE
:103F10005B40000893400008B740000824030020DD
:103F2000024A0349034800F069B800BF400000207E
:103F3000A55800084C00002041680C4B10B5994270
:103F4000044601D001F0AEFCA168094B994202D0B1
:103F5000204601F0A7FCE168064B994204D02046B8
:103F6000BDE8104001F09EBC10BD00BF240300203E
:103F70008C030020F403002010B50B4B0B4C0C4AB3
:103F800020461A6004210022FFF794FF04F1680024
:103F900001220921FFF78EFF04F1D0000222BDE8C3
:103FA00010401221FFF786BF5C040020240300208C
:103FB000213F0008014800F000B900BF650400205F
:103FC000014800F0FBB800BF6504002010B50446AE
:103FD000FFF7F0FF236A1BB1BDE81040FFF7F0BF09
:103FE000044B2362044B1B68002BF5D1FFF7C4FF81
:103FF000F2E700BF393F00085C0400202DE9F843D8
:104000000746884614460026D4E90195B9F101090E
:1040100005D52468002CF7D13046BDE8F883AB897C
:10402000012B07D9B5F90E30013303D029463846A4
:10403000C04706436835E9E710B50C46B1F90E10E4
:1040400000F06CF80028ABBF636DA3891B1823F444
:104050008053ACBF6365A38110BD2DE9F0411F46BD
:104060008B890546DB050C46164605D50223002242
:10407000B1F90E1000F040F8A389324623F48053C2
:10408000A38128463B46B4F90E10BDE8F04100F08C
:1040900057B810B50C46B1F90E1000F02DF8431CBE
:1040A000A38915BF606523F4805343F48053A38133
:1040B00018BFA38110BDB1F90E1000F00DB8034672
:1040C0000244934200D1704703F8011BF9E7000056
:1040D000004870478C01002038B50023054D044688
:1040E00008462B60FCF774FF431C02D12B6803B118
:1040F000236038BD6004002038B5044608461146E8
:104100000022054D2A601A46FCF786FF431C02D1A7
:104110002B6803B1236038BD6004002038B5044625
:10412000084611460022054D2A601A46FCF717FF83
:10413000431C02D12B6803B1236038BD600400200A
:1041400038B50446084611460022054D2A601A4635
:10415000FCF722FF431C02D12B6803B1236038BD5A
:1041600060040020014B1868704700BF98000020D1
:1041700070B500260C4D0D4C641BA410A64209D14D
:1041800001F0E0FE00260A4D0A4C641BA410A64272
:1041900005D170BD55F8043B98470136EEE755F858
:1041A000043B98470136F2E7FC620008FC62000815
:1041B000FC620008006300087047704770470346C0
:1041C00010B5C9B202449342184601D1002003E061
:1041D000047801338C42F6D110BD2DE9F74F036905
:1041E0000C690746A3427FDB013C00F1140501F195
:1041F000140805EB8403019358F8243055F8242063
:1042000001339A42B2FBF3F64FEA840B08EB8409C0
:1042100031D34FF0000E4046AC46F24650F8042B26
:1042200093B206FB03E34FEA124E1A0C9BB206FB55
:104230000E22AAEB0303DCF800A04FEA124E1FFA8D
:104240008AFA5344DCF800A092B2C2EB1A4202EBA5
:1042500023429BB243EA024381454FEA224A4CF88B
:10426000043BDBD255F80B302BB9019B043B9D423C
:104270001A462DD33C61384601F094F9002823DB1F
:1042800029460020013658F8042BD1F800C093B21B
:10429000C31A120C1FFA8CF00344C2EB1C4202EB4F
:1042A00023429BB243EA0243C1454FEA224041F810
:1042B000043BE8D255F8242005EB840322B9043BE3
:1042C0009D421A460AD33C61304603B0BDE8F08FE8
:1042D0001268043B002ACDD1013CC8E71268043BB8
:1042E000002AF0D1013CEBE70020EEE700000000DF
:1042F0002DE9F04F16461F46C46999B00546CDE931
:104300000467DDF8948074B9102000F01DFE0246A9
:10431000E86120B9EF21AC4BAC4801F009FBC0E9E2
:1043200001440460C460EB69196851B15A68012303
:1043300093404A608B60284600F0FAFE0022EB6949
:104340001A603B1EAFBF0023012223F000430593F8
:10435000A8BFC8F80030DDF814909D4BB8BFC8F86E
:10436000002033EA090319D142F20F73249A136033
:10437000C9F31303334300F08985269B53B9954B4A
:1043800023E0954B03930833269A1360039819B0E2
:10439000BDE8F08F8F4B03930333F5E7DDE9043479
:1043A000CDE90C34DDE90C0100220023FCF7FCFA16
:1043B000804660B10123249A1360269B002B00F0F5
:1043C0006285864B269A1360013B0393DEE716ABAA
:1043D000019317AB00932846DDE90C2301F08AF91D
:1043E000C9F30A548246002C7ED0DDE90C010D9BF6
:1043F000A4F2FF34C3F3130343F07F5343F4401399
:10440000CDF84C8019460022754BFBF7ADFE68A332
:10441000D3E90023FCF760F867A3D3E90023FBF797
:10442000A5FE064620460F46FBF7ECFF64A3D3E942
:104430000023FCF751F802460B4630463946FBF79D
:1044400095FE06460F46FCF7F7FA00228346002346
:1044500030463946FCF7B2FA48B15846FBF7D2FF6E
:1044600032463B46FCF7A0FA08B90BF1FF3BBBF123
:10447000160F57D8DDE90C015A4B03EBCB03D3E9F8
:104480000023FCF79BFA00284ED000230BF1FF3BE2
:104490000F93169B1B1B5A1E46BFC3F10109002335
:1044A0004FF00009099248BF0993BBF1000F3DDBB3
:1044B000099BCDF838B05B44099300230A93229BF3
:1044C000092B67D8052BC4BF043B2293229BC8BF8E
:1044D0000024A3F10203D8BF0124032B00F286803D
:1044E000DFE803F02C393756DDE916431C4404F2AB
:1044F0003243202BC1BFC3F1400309FA03F904F290
:10450000124326FA03F3D6BFC3F1200349EA03009E
:1045100006FA03F0FBF766FF0122A1F1F873013CF4
:1045200013926FE70123B3E70F90B2E7CBF10003DB
:104530000A930023A9EB0B090E93C0E700230B930A
:10454000239B002B55DC01231A46069308932392E4
:104550000BE00123F3E700230B93239B5B440693BB
:104560000133012B0893B8BF012300210422E8691D
:1045700002F114069E4240D94160284600F098FDA1
:10458000039000283CD1024640F2AF11164BC3E61F
:104590000123E1E7012400230B9422934FF0FF3322
:1045A0000022069308931223D1E700BFAFF30080E7
:1045B00061436F63A787D23FB3C8608B288AC63F29
:1045C000FB799F501344D33FCB5F0008E25F0008A4
:1045D0000000F07FC75F0008BE5F00089B5F000817
:1045E0000000F83FD06000083A60000801230B93F8
:1045F000D4E7239B06930893B7E701315200B7E74E
:10460000EB69039A1A60089B0E2B00F2A880002C1D
:1046100000F0A580BBF1000F34DD9A4B0BF00F02C8
:1046200003EBC2031BF4807FD3E90034CDE91034DF
:104630004FEA2B1416D0DDE90C01934B0327D3E985
:104640000823FCF773F8CDE9040104F00F048E4E43
:1046500054B9DDE91023DDE90401FCF767F8CDE981
:10466000040129E00227F2E7E10708D5DDE910019E
:10467000D6E90023FBF730FFCDE9100101376410C4
:104680000836E5E700F0A580DDE90C01CBF1000478
:104690007C4B04F00F0203EBC203D3E90023FBF7CA
:1046A0001BFF02270023CDE90401774E2411002CC3
:1046B00040F08480002BD2D1DDE90434CDE9103400
:1046C0000F9B002B00F08780DDE9100100226F4B6B
:1046D000FCF774F900287ED0089B002B7BD0069B4A
:1046E000002B38DDDDE910010022694BFBF7F4FEF9
:1046F000CDE90401069C0BF1FF3801373846FBF782
:1047000081FEDDE90423FBF7E7FE0022614BFBF7A6
:104710002DFDA1F15076CDE910011196002C5DD14F
:10472000DDE9040100225C4BFBF71EFD02460B464F
:10473000CDE904233346109AFCF75EF9002840F0D7
:104740009582DDE90401109A06F10043FCF736F981
:10475000002840F08982DDE90C34CDE90434179B50
:10476000002BC0F25181BBF10E0F00F34D81454B80
:1047700003EBCB03D3E90034CDE90634239B002BB4
:1047800080F2DA80089B002B00F3D68040F06B8229
:10479000DDE906010022404BFBF79EFEDDE9042324
:1047A000FCF720F9089C2646002840F0418231237E
:1047B000039F0BF1010B07F8013B3DE2E20705D532
:1047C000D6E90023FBF788FE012301376410083681
:1047D0006DE7022770E7D846089C8FE70399294BBD
:1047E000214412910B9903EBC403DDE9106753E9EF
:1047F0000223002954D000202849FBF797FF3B46AD
:104800003246FBF7B1FCCDE91001039FDDE904015D
:10481000FCF712F90446FBF7F5FD02460B46DDE90D
:104820000401FBF7A1FC02460B463034CDE904231A
:10483000DDE9102307F8014BFCF7C0F8002873D11D
:10484000DDE9042300201149FBF78EFCDDE910238C
:10485000FCF7B4F8002840F0B680129B9F423FF46A
:104860007AAFDDE910010022094BFBF735FE00228B
:10487000CDE91001DDE90401054BFBF72DFECDE983
:104880000401C3E7D0600008A86000080000F03F02
:104890000000244000001C40000014400000E03FE5
:1048A00030463946FBF718FE129BCDE91001039CF8
:1048B0001493DDE90401FCF7BFF81590FBF7A2FDA6
:1048C00002460B46DDE90401FBF74EFC159B06464C
:1048D000303304F8013B129B0F469C424FF000021C
:1048E00024D1DDE91001AF4BFBF740FC02460B463B
:1048F00030463946FCF780F8002863D1DDE9102303
:104900000020A849FBF730FC02460B4630463946EA
:10491000FCF754F800283FF41EAF149F7B1E14933D
:1049200017F8013C302BF8D0C3463BE09E4BFBF719
:10493000D3FDCDE90401BCE7039FDDE90489DDE98E
:10494000062340464946FBF7F1FEFCF775F804469E
:10495000FBF758FDDDE90623FBF7BEFD02460B46DB
:1049600040464946FBF700FC04F1300607F8016BAE
:10497000039EDDF820C0BE1BB44502460B4636D16F
:10498000FBF7F4FBDDE9062380468946FCF734F8A3
:1049900058BBDDE9062340464946FCF705F808B157
:1049A000E30722D45146284600F0C2FB0023249A94
:1049B0003B700BF101031360269B002B3FF4E6AC28
:1049C0001F60E3E427463B461F4613F8012D392AB2
:1049D00007D1039A9A42F7D13022039908F10108CE
:1049E0000A701A7801321A709EE7D846EBE7002267
:1049F0006D4BFBF771FD0022002380468946FBF7D3
:104A0000D3FF00289BD0CDE70B9A002A00F0C4808A
:104A1000229A012A00F3A880139A002A00F0A080AD
:104A200003F233434F460A9C099A01211A4428464F
:104A30009944099200F032FC06465FB1099B002BB5
:104A400008DDBB42A8BF3B46099AA9EB0309FF1A40
:104A5000D31A09930A9BF3B10B9B002B00F0A080A3
:104A6000002C10DD31462246284600F0D5FC524687
:104A700001460646284600F027FC80465146284657
:104A800000F056FBC2460A9B1A1B04D0514628462A
:104A900000F0C2FC82460121284600F0FFFB0E9B7D
:104AA0000446002B40F382801A460146284600F057
:104AB000B3FC229B0446012B7BDD4FF000082369E9
:104AC00004EB8303186900F09BFBC0F12000099BF5
:104AD000184410F01F0000F09280C0F12003042B56
:104AE00040F38580099BC0F11C00034481440744C6
:104AF0000993B9F1000F05DD51464A46284600F0FA
:104B0000E5FC8246099B002B05DD21461A46284616
:104B100000F0DCFC04460F9B002B72D0214650466F
:104B200000F040FD00286CDA002351460A22284696
:104B300000F020FB0B9B82460BF1FF3B002B00F0AB
:104B4000AC81002331460A22284600F013FB069B65
:104B50000646002B00F39380229B022B59DC8EE04B
:104B6000169BC3F136035DE7089B5C1E0A9BA342BC
:104B7000BFBF0A9B0E9AE31AD218A8BF1C1B089B42
:104B8000BEBF0A940E920024002BB5BFA9EB030709
:104B90004F460023089B47E74F460A9C0B9E4CE775
:104BA0000A9A73E70000E03F00002440229B012B9B
:104BB00018DC049BB3B9059BC3F3130393B9059B9E
:104BC00023F000431B0D1B057BB14FF00108099B2F
:104BD00009F10109013309930E9B002B7FF46FAF9C
:104BE000012074E74FF00008F6E79846F4E780D01C
:104BF000099A1C331A4499441F44099279E70346E1
:104C0000F6E7089B002B34DC229B022B31DD089B4E
:104C10000693069B63B921460522284600F0AAFAAE
:104C200001460446504600F0BDFC00283FF7BFADEA
:104C3000239B039F6FEA030B4FF000082146284691
:104C400000F076FA002E3FF4ADAEB8F1000F05D0BB
:104C5000B04503D04146284600F06AFA314628465E
:104C600000F066FA9EE600242646E1E7C3462646A3
:104C70009DE50B9B002B00F0C880089B0693002F3E
:104C800005DD31463A46284600F020FC0646B8F1DC
:104C9000000F5BD02846716800F00AFA074628B971
:104CA000024640F2EF21814BFFF736BB326906F135
:104CB0000C01023292000C3000F02CFE0122394629
:104CC000284600F003FCB0460646039B039A0133D6
:104CD0000893069B13440B93049B03F001030A9370
:104CE000089B2146013B50460493FFF776FA414664
:104CF000069000F13009504600F054FC324609900D
:104D00002146284600F06AFCC268074602BB0146FD
:104D1000504600F047FC0246394628460C9200F007
:104D200007FA229B0C9A089F43EA02010A9B194347
:104D300010D1B9F1390F29D0099B002B02DD069B58
:104D400003F13109049B83F8009077E73046BAE716
:104D50000122E1E7099B002B04DB22990B430A990E
:104D60000B4320D1002AEDDD51460122284600F0F8
:104D7000ADFB2146824600F015FC002803DCE1D1A2
:104D800019F0010FDED0B9F1390FD8D13923049AC7
:104D900013703B461F4617F8012C013B392A6BD094
:104DA00001321A704AE7002A07DDB9F1390FEDD058
:104DB000049A09F10103137040E7089B0B9A03F86A
:104DC000019C934242D0514600230A22284600F01B
:104DD000D1F9B04582464FF000034FF00A02414638
:104DE000284607D100F0C6F980460646089B0133E5
:104DF000089375E700F0BEF93146804600230A2289
:104E0000284600F0B7F90646F0E7089B0693039F93
:104E100021465046FFF7E1F9039B00F1300907F8FE
:104E2000019BFA1A069B934207DD514600230A2292
:104E3000284600F09FF98246EAE7069B4FF00008FB
:104E4000002BCCBF1F460127039B1F445146012264
:104E5000284600F03BFB2146824600F0A3FB0028D9
:104E600097DC02D119F0010F93D13B461F4613F88E
:104E7000012D302AFAD0E1E6039A9A428AD13123F1
:104E80000BF1010B97E70A4BFFF79FBA269B002B0C
:104E90007FF477AA074BFFF798BA069B002BB6DC86
:104EA000229B022B3FF7B5AEB1E700BF3A60000886
:104EB0009A5F0008BE5F000838B50546002940D05B
:104EC00051F8043C0C1F002BB8BFE41800F0E4F8C4
:104ED0001C4A136833B9636014602846BDE8384043
:104EE00000F0E0B8A34208D9206821188B4201BF26
:104EF00019685B6809182160EDE71A465B680BB119
:104F0000A342FAD911685018A0420BD1206801447D
:104F1000501883421160E0D118685B680844106043
:104F20005360DAE702D90C232B60D6E720682118FA
:104F30008B4201BF19685B68091821606360546087
:104F4000CBE738BD68040020024B0146186800F02A
:104F500023B800BF9800002070B50E4E0C46316893
:104F6000054611B900F0C6FC30602146284600F025
:104F7000C1FC431C0AD0C41C24F00304A04207D087
:104F8000211A284600F0B6FC013001D14FF0FF3461
:104F9000204670BD6C0400202DE9F843CD1C25F09F
:104FA000030508350C2D38BF0C25002D074601DB05
:104FB000A94205D90C2300263B603046BDE8F883A2
:104FC000DFF8D08000F068F8D8F800301C465CBBF1
:104FD00029463846FFF7C0FF431C044655D1D8F890
:104FE00000402646002E45D1002C48D0236831468B
:104FF000384604EB030900F07DFC81453FD1216870
:1050000038466D1A2946FFF7A7FF013037D02368CD
:105010002B442360D8F80030002B38D05A68A242C5
:105020002BD100225A600FE02268521B1FD40B2A9A
:1050300017D96119A342256018BF5960636808BF7A
:10504000C8F8001062514B60384604F10B0600F0BE
:1050500029F826F00706231DF21AAED09B1BA35099
:10506000ABE7A3426268DDD1C8F80020ECE7234635
:105070006468ACE734467668B4E71346CCE70C23A3
:1050800038463B6000F00EF897E72560DCE75B6090
:10509000FFDE00BF680400200148FFF78EB800BFA4
:1050A000640400200148FFF789B800BF64040020B1
:1050B00070B5C66904460D4676B91020FFF744FF67
:1050C0000246E06120B96B21174B184800F030FC14
:1050D000C0E901660660C660E669F36883B1E3690A
:1050E000DB6853F82500B8B9012101FA05F6721DF5
:1050F0002046920000F03AFC60B1C0E901560EE093
:1051000021220421204600F031FCE369F060DB68D5
:10511000002BE4D1002070BD026843F82520002355
:10512000C0E90333F7E700BFCB5F00084B6000081E
:1051300070B5C66905460C4676B91020FFF704FF26
:105140000246E86120B98F21084B094800F0F0FBC6
:10515000C0E901660660C6603CB1EB696268DB6865
:1051600053F82210216043F8224070BDCB5F000845
:105170004B6000082DE9F04107460C461E46002012
:105180000D6901F1140CDCF80030013099B202FB1A
:1051900001611E0C0B0C02FB063389B201EB0341CB
:1051A00085424FEA13464CF8041BECDC0EB3A368AF
:1051B000AB4219DC616838460131FFF779FF804660
:1051C00028B90246BA210C4B0C4800F0B1FB226909
:1051D00004F10C01023292000C3000F09BFB2146DE
:1051E0003846FFF7A5FF444604EB850301355E61B1
:1051F00025612046BDE8F0813A6000084B60000858
:10520000020C12040346CAB90304102013F07F4FA6
:1052100004BF1B02083013F0704F04BF1B010430A1
:1052200013F0404F04BF9B000230002B05DB13F04E
:10523000804F00F1010008BF202070470020E5E703
:105240000368024613F007000BD0D90721D4980752
:1052500049BF5B089B08012013605CBF02201360FC
:10526000704799B209B910201B0CD9B209B908309E
:105270001B0A190704BF1B090430990704BF9B08C8
:105280000230D90703D45B0800F1010003D013609A
:1052900070470020704720207047000010B50C4672
:1052A0000121FFF705FF024628B940F24511044BE2
:1052B000044800F03DFB01234461036110BD00BFC1
:1052C0003A6000084B6000082DE9F04F91460A69EA
:1052D000D9F810300C469A42BEBF0B464C46994650
:1052E0002769D9F810A0A368616807EB0A06B342E2
:1052F00085B0B8BF0131FFF7DBFE30B902464FF48D
:10530000B171434B434800F013FB00F114052B46E9
:10531000002205EB8608434521D304F1140303EB77
:10532000870709F1140303EB8A0202923A1B153A2C
:1053300022F00302043204F115018F4238BF042227
:105340000192029A03939A420CD8002E03DD58F87A
:10535000043D002B5AD0066105B0BDE8F08F43F83C
:10536000042BD8E7B3F800A0BAF1000F23D0A94668
:105370004FF0000C04F1140E5EF8042BD9F8001065
:105380001FFA82FB89B20AFB0B116144D9F800C0F5
:10539000120C4FEA1C4C0AFB02C202EB114289B20A
:1053A00041EA024177454FEA124C49F8041BE3D821
:1053B000019A45F802C0039A0433B2F80290B9F199
:1053C000000F21D0AE464FF0000A296804F1140CFA
:1053D000BCF800B0BEF8022089B209FB0B2252448F
:1053E00041EA02414EF8041B5CF8041B4FEA114AE3
:1053F000BEF80010674509FB0A1101EB12414FEAA4
:10540000114AE5D8019AA95004359AE7013E9CE774
:105410003A6000084B6000082DE9F843154612F089
:10542000030206460F4607D0254C013A002354F8E4
:105430002220FFF79FFE0746AD103DD0F4697CB9EE
:105440001020FFF781FD0246F06128B940F2B31148
:105450001C4B1D4800F06CFAC0E901440460C460B4
:10546000D6F81C80D8F808404CB940F2712130467B
:10547000FFF714FF00230446C8F8080003604FF04C
:105480000009EB070AD5394622463046FFF71CFFD4
:10549000804639463046FFF74BFE47466D100BD02D
:1054A000206838B9224621463046FFF70DFF2060BC
:1054B000C0F800900446E4E73846BDE8F88300BF32
:1054C00098610008CB5F00084B6000082DE9F047A9
:1054D0000C46074691462369496803EB6218A368A6
:1054E0004FEA621A08F10106B3420BDB3846FFF7B8
:1054F000DFFD054648B902464FF4EF71274B2848B7
:1055000000F016FA01315B00EEE7002300F1140110
:1055100000F110021846534533DB20692AEAEA7A83
:1055200004F1140319F01F0901EB8A0103EB800C4D
:105530002BD08A460022C9F1200E186800FA09F023
:1055400010434AF8040B53F8042B9C4522FA0EF240
:10555000F3D8ACEB0403153B23F00303043304F14D
:105560001500844538BF0423CA500AB108F1020669
:10557000013E384621462E61FFF7DAFD2846BDE898
:10558000F08742F8040F0133C5E7043953F8042BC0
:105590009C4541F8042FF9D8EAE700BF3A600008BB
:1055A0004B60000803460A69006930B5801A0DD1C6
:1055B0001433143103EB820401EB820154F8045DCF
:1055C00051F8042D954202D004D3012030BDA342EE
:1055D000F4D3FBE74FF0FF30F8E700002DE9F84F78
:1055E0000D460746114628461446FFF7DBFF061E08
:1055F00011D131463846FFF75BFD024628B940F22B
:1056000037213A4B3A4800F093F90123C0E90436B8
:105610001046BDE8F88FA4BF23462C463846616883
:10562000A6BF1D4600260126FFF742FD024618B917
:1056300040F245212D4BE5E702F11408C2464FF038
:10564000000C2769C6602E6904F1140005F11409E5
:1056500000EB870E09EB8606103454F804BF59F8A6
:10566000043B1FFA8BF161441FFA83FC1B0CA1EB76
:105670000C01C3EB1B4303EB214389B241EA034115
:105680004E454FEA234C4AF8041BE6D8731B153BE2
:1056900023F0030315350433AE4238BF0423184406
:1056A00043441E46054675450ED30EF10301091A03
:1056B00021F003010338864538BF00210B4453F81D
:1056C000041D89B11761A3E755F8048B1FFA88F10F
:1056D00061440C1404EB184489B241EA04414FEAD6
:1056E000244C46F8041BDEE7013FE8E73A60000877
:1056F0004B600008F7B5012117461C46089EFFF7CE
:10570000D7FC054630B9024640F20F31224B234800
:1057100000F00EF9C4F31303C4F30A5424BB002FA2
:10572000019326D068460097FFF78AFDDDE9001255
:10573000E8B1C0F1200302FA03F30B43C2406B61EE
:105740000192019B002B14BF02210121AB61296151
:10575000BCB1A4F2334404443460C0F13500099B69
:105760001860284603B0F0BD43F48013D7E76961A1
:10577000E7E701A8FFF764FD019B01216B61203081
:10578000E5E7A0F2324005EB810330601869FFF7CE
:1057900037FDC0EB4110E2E73A6000084B600008BB
:1057A0008A89F8B5054610070C4657D44B68002B7C
:1057B00004DC0B6C002B01DC0020F8BDE66A002E37
:1057C000FAD0002312F480522F68216A2B6032D065
:1057D000606DA3895A0705D56368C01A636B0BB166
:1057E000236CC01A00230246E66A2846216AB047A5
:1057F000431CA38906D129681D292BD8284A0A41B0
:10580000D60727D4002262602269D904226004D519
:10581000421C01D12B6803B96065616B2F600029C0
:10582000CAD004F14403994202D02846FFF744FB52
:1058300000206063C1E701232846B047411CC8D15E
:105840002B68002BC5D01D2B01D0162B01D12F604A
:10585000B2E7A38943F04003A381AEE70F69002FAD
:10586000AAD0930718BF00230E6808BF4B69F61B28
:105870000F608B60002E9FDD33463A462846216A32
:10588000D4F828C0E047002806DCA3894FF0FF3099
:1058900043F04003A38190E70744361AEAE700BFCC
:1058A000FEFFBFDF38B50B6905460C4613B900256E
:1058B000284638BD18B1036A0BB9FEF787FBB4F967
:1058C0000C30002BF3D0626ED00704D4990502D4BB
:1058D000A06DFEF772FC28462146FFF761FF636E5C
:1058E0000546DA07E4D4A3899B05E1D4A06DFEF751
:1058F00065FCDDE738B50023054D044608462B60FE
:10590000FBF796FB431C02D12B6803B1236038BD23
:10591000600400200A44914200F1FF3300D1704737
:1059200010B511F8014B914203F8014FF9D110BDA8
:105930001FB514461A46094B05461B68D8684CB17A
:10594000074BCDE9013400912B46064900F042F89F
:1059500000F052F8044B1C46F3E700BF980000200B
:10596000AE610008BB610008E961000870B5A1FBE9
:10597000025434B92946FFF70FFB064628B93046D2
:1059800070BD0C2200260260F9E72A462146FEF788
:1059900096FBF4E782B001B901A942B14BB113788B
:1059A0000B601278101E18BF012002B0704710461D
:1059B000FBE76FF00100F8E70346084641B1FF2A14
:1059C00004D98A224FF0FF301A60704701200A7014
:1059D000704700000EB403B5014603AB054853F809
:1059E000042B0068019300F035F802B05DF804EB79
:1059F00003B0704798000020062008B500F002FAB6
:105A00000120FBF7A2FA936810B4013B002B9360CE
:105A100007DA9469A34201DB0A2902D110BC00F025
:105A200033B91368581C10601970084610BC7047D1
:105A3000F8B506460F461446D518AC4201D10020F1
:105A400007E03A46304614F8011BFFF7DCFF431C21
:105A5000F3D1F8BD2DE9F04F0D46144698460646A1
:105A60009DB018B1036A0BB9FEF7B0FA6B6ED90797
:105A700005D4AB899A0502D4A86DFEF79EFBAB89CD
:105A80001B0701D52B699BB92946304600F03AF92E
:105A900070B16B6EDC0704D54FF0FF301DB0BDE870
:105AA000F08FAB899805F7D4A86DFEF787FBF3E775
:105AB0000023099320238DF8293030234FF001096A
:105AC000CDF80C80DFF8AC818DF82A3023469A4659
:105AD00013F8012B0AB1252AF9D1BAEB040B0BD02C
