:020000040800F2
:1000000000500020ED0100083D0200083D020008FC
:100010003D0200083D0200083D020008000000000B
:100020000000000000000000000000003D02000889
:100030003D020008000000003D0200083D020008EB
:100040003D0200083D0200083D0200083D02000894
:100050003D0200083D0200083D0200083D02000884
:100060003D0200083D0200083D0200083D02000874
:100070003D0200083D0200083D0200083D02000864
:100080003D0200083D0200083D0200083D02000854
:100090003D0200083D0200083D0200083D02000844
:1000A0003D0200083D0200083D0200083D02000834
:1000B0003D0200083D0200083D0200083D02000824
:1000C0003D0200083D0200083D0200083D02000814
:1000D0003D0200083D0200083D0200083D02000804
:1000E0003D0200083D020008000000003D0200083B
:1000F0003D0200083D0200083D0200083D020008E4
:100100003D0200083D0200083D0200083D020008D3
:100110003D0200083D0200083D0200083D020008C3
:100120003D0200083D0200083D0200083D020008B3
:1001300010B5054C237833B9044B13B10448AFF321
:1001400000800123237010BD00000020000000008B
:100150004806000808B5034B1BB103490348AFF339
:10016000008008BD000000000400002048060008D0
:1001700080B483B000AF00237B6002E07B68013372
:100180007B607B68044A9342F8D900BF00BF0C37FC
:10019000BD4680BC704700BF1FA1070080B584B07A
:1001A00000AF114B7B604FF6FF733B810323BB72A3
:1001B0000023FB7200233B733B1D184600F090F8B0
:1001C00000224FF40051084800F0EAF942F204011D
:1001D000054800F057F94FF40051034800F0F7F9D3
:1001E000FFF7C6FFF7E700BF001001400D48854646
:1001F000AFF300800C480D490D4A002302E0D458AB
:10020000C4500433C4188C42F9D30A4A0A4C002360
:1002100001E013600432A242FBD300F0F1F9FFF7D2
:10022000BDFFFEE70050002000000020000000207D
:1002300068060008000000201C000020FEE7000007
:1002400080B483B000AF78600B46FB70FB78012B65
:1002500035D17B681C4A934206D11C4B9B691B4AD3
:1002600043F0040393612AE07B68194A934206D164
:10027000164B9B69154A43F0080393611FE07B68A6
:10028000144A934206D1114B9B69104A43F0100364
:10029000936114E07B68104A934206D10B4B9B6933
:1002A0000A4A43F02003936109E07B680B4A9342BA
:1002B00005D1064B9B69054A43F04003936100BF9B
:1002C0000C37BD4680BC704700080140001002405A
:1002D000000C0140001001400014014000180140D2
:1002E00080B588B000AF78607B681B680121184634
:1002F000FFF7A6FF0023FB6100233B610023BB61E6
:100300000023FB6000237B610023BB607B68DB79FB
:10031000FB617B689B79002B05D07B689B791A4633
:10032000FB691343FB617B689B88DBB2002B4DD0DC
:100330007B681B681B687B613CE00122BB6902FA99
:1003400003F3FB607B689B881A46FB6813403B61A4
:100350003A69FB689A422AD1BB699B00FB600F2275
:10036000FB6802FA03F3BB60BB68DB437A691340A6
:100370007B61FA69FB6802FA03F37A6913437B61D4
:100380007B681B7A022B07D17B681B680121BA6945
:1003900001FA02F25A610AE07B681B7A012B06D14E
:1003A0007B681B680121BA6901FA02F21A61BB6914
:1003B0000133BB617B689B881A46BB6942FA03F331
:1003C000002BBAD17B681B687A691A607B689B88AE
:1003D000FF2B53D90023BB617B681B685B687B6183
:1003E00040E0BB690833012202FA03F3FB607B683B
:1003F0009B881A46FB6813403B613A69FB689A4246
:100400002DD1BB699B00FB600F22FB6802FA03F34E
:10041000BB60BB68DB437A6913407B61FA69FB68A8
:1004200002FA03F37A6913437B617B681B7A022B20
:1004300008D1BB6903F108027B681B68012101FA3E
:1004400002F25A617B681B7A012B08D1BB6903F168
:1004500008027B681B68012101FA02F21A61BB697C
:100460000133BB617B689B881A46BB6942FA03F380
:10047000002BB6D17B681B687A695A6000BF2037B1
:10048000BD4680BD80B489B000AF7860396000237C
:100490007B610023FB6100233B610023BB610023E0
:1004A000FB603B68DBB2002B37D07B681B68BB610D
:1004B0002AE00122FB6902FA03F33B613A683B69D7
:1004C00013407B617A693B699A421AD1FB699B00B0
:1004D0003B610F223B6902FA03F3FB60FB68DB43DD
:1004E000BA691340BB6104223B6902FA03F3BA699B
:1004F0001343BB617B68DA687B69DB431A407B6826
:10050000DA60FB690133FB613A68FB6922FA03F3A5
:10051000002BCED17B68BA691A603B68FF2B3AD9B1
:100520007B685B68BB610023FB612BE0FB690833E0
:10053000012202FA03F33B613A683B6913407B6195
:100540007A693B699A421AD1FB699B003B610F2291
:100550003B6902FA03F3FB60FB68DB43BA691340B3
:10056000BB6104223B6902FA03F3BA691343BB611E
:100570007B68DA687B69DB431A407B68DA60FB6979
:100580000133FB613A68FB6922FA03F3002BCDD1FA
:100590007B68BA695A6000BF2437BD4680BC70478B
:1005A00080B483B000AF78600B467B8013467B70CD
:1005B0007B78002B03D07A887B681A6102E07A8806
:1005C0007B685A6100BF0C37BD4680BC704780B461
:1005D00085B000AF78600B467B807B68DB68FB6092
:1005E0007A88FB6813401A04FB68D9437B880B4068
:1005F0001A437B681A6100BF1437BD4680BC704740
:1006000070B500260C4D0D4C641BA410A64209D1F8
:1006100000F01AF800260A4D0A4C641BA410A642EA
:1006200005D170BD55F8043B98470136EEE755F803
:10063000043B98470136F2E76006000860060008B0
:100640006006000864060008F8B500BFF8BC08BCE6
:100650009E467047F8B500BFF8BC08BC9E46704780
:040660005501000838
:040664003101000858
:04000005080001ED01
:00000001FF
