:020000040800F2
:1000000000500020E1010008310200083102000820
:10001000310200083102000831020008000000002F
:100020000000000000000000000000003102000895
:10003000310200080000000031020008310200080F
:1000400031020008310200083102000831020008C4
:1000500031020008310200083102000831020008B4
:1000600031020008310200083102000831020008A4
:100070003102000831020008310200083102000894
:100080003102000831020008310200083102000884
:100090003102000831020008310200083102000874
:1000A0003102000831020008310200083102000864
:1000B0003102000831020008310200083102000854
:1000C0003102000831020008310200083102000844
:1000D0003102000831020008310200083102000834
:1000E000310200083102000800000000310200085F
:1000F0003102000831020008310200083102000814
:100100003102000831020008310200083102000803
:1001100031020008310200083102000831020008F3
:1001200031020008310200083102000831020008E3
:1001300010B5054C237833B9044B13B10448AFF321
:1001400000800123237010BD00000020000000008B
:100150001C05000808B5034B1BB103490348AFF366
:10016000008008BD00000000040000201C050008FD
:1001700080B483B000AF00237B6002E07B68013372
:100180007B607B68044A9342F8D900BF00BF0C37FC
:10019000BD4680BC704700BF1FA1070080B584B07A
:1001A00000AF0E4B7B604FF440533B810323BB7287
:1001B0000023FB7200233B733B1D184600F08AF8B6
:1001C00000224FF40051054800F054F94FF400515B
:1001D000024800F066F9FFF7CBFFF7E70010014097
:1001E0000D488546AFF300800C480D490D4A0023A9
:1001F00002E0D458C4500433C4188C42F9D30A4ADC
:100200000A4C002301E013600432A242FBD300F049
:1002100061F9FFF7C3FFFEE7005000200000002057
:10022000000000203C050008000000201C00002009
:10023000FEE7000080B483B000AF78600B46FB702F
:10024000FB78012B35D17B681C4A934206D11C4BAD
:100250009B691B4A43F0040393612AE07B68194AB7
:10026000934206D1164B9B69154A43F008039361EC
:100270001FE07B68144A934206D1114B9B69104AD8
:1002800043F01003936114E07B68104A934206D157
:100290000B4B9B690A4A43F02003936109E07B689A
:1002A0000B4A934205D1064B9B69054A43F0400334
:1002B000936100BF0C37BD4680BC70470008014009
:1002C00000100240000C01400010014000140140E9
:1002D0000018014080B588B000AF78607B681B686B
:1002E00001211846FFF7A6FF0023FB6100233B61B5
:1002F0000023BB610023FB6000237B610023BB6004
:100300007B68DB79FB617B689B79002B05D07B6880
:100310009B791A46FB691343FB617B689B88DBB2C0
:10032000002B4DD07B681B681B687B613CE0012281
:10033000BB6902FA03F3FB607B689B881A46FB6883
:1003400013403B613A69FB689A422AD1BB699B0022
:10035000FB600F22FB6802FA03F3BB60BB68DB4360
:100360007A6913407B61FA69FB6802FA03F37A69E0
:1003700013437B617B681B7A022B07D17B681B6868
:100380000121BA6901FA02F25A610AE07B681B7A1C
:10039000012B06D17B681B680121BA6901FA02F2C0
:1003A0001A61BB690133BB617B689B881A46BB69D4
:1003B00042FA03F3002BBAD17B681B687A691A6092
:1003C0007B689B88FF2B51D97B681B685B687B61CE
:1003D00040E0BB690833012202FA03F3FB607B684B
:1003E0009B881A46FB6813403B613A69FB689A4256
:1003F0002DD1BB699B00FB600F22FB6802FA03F35F
:10040000BB60BB68DB437A6913407B61FA69FB68B8
:1004100002FA03F37A6913437B617B681B7A022B30
:1004200008D1BB6903F108027B681B68012101FA4E
:1004300002F25A617B681B7A012B08D1BB6903F178
:1004400008027B681B68012101FA02F21A61BB698C
:100450000133BB617B689B881A46BB6942FA03F390
:10046000002BB6D17B681B687A695A6000BF2037C1
:10047000BD4680BD80B483B000AF78600B467B8002
:1004800013467B707B78002B03D07A887B681A61D7
:1004900002E07A887B685A6100BF0C37BD4680BC99
:1004A000704780B485B000AF78600B467B807B6876
:1004B000DB68FB607A88FB6813401A04FB68D94349
:1004C0007B880B401A437B681A6100BF1437BD4616
:1004D00080BC704770B500260C4D0D4C641BA410F9
:1004E000A64209D100F01AF800260A4D0A4C641BF6
:1004F000A410A64205D170BD55F8043B98470136BB
:10050000EEE755F8043B98470136F2E7340500085A
:10051000340500083405000838050008F8B500BFA8
:10052000F8BC08BC9E467047F8B500BFF8BC08BCD4
:040530009E4670472C
:040534005501000865
:040538003101000885
:04000005080001E10D
:00000001FF
