:020000040800F2
:1000000000500020D1010008210200082102000850
:10001000210200082102000821020008000000005F
:1000200000000000000000000000000021020008A5
:10003000210200080000000021020008210200083F
:100040002102000821020008210200082102000804
:1000500021020008210200082102000821020008F4
:1000600021020008210200082102000821020008E4
:1000700021020008210200082102000821020008D4
:1000800021020008210200082102000821020008C4
:1000900021020008210200082102000821020008B4
:1000A00021020008210200082102000821020008A4
:1000B0002102000821020008210200082102000894
:1000C0002102000821020008210200082102000884
:1000D0002102000821020008210200082102000874
:1000E000210200082102000800000000210200088F
:1000F0002102000821020008210200082102000854
:100100002102000821020008210200082102000843
:100110002102000821020008210200082102000833
:100120002102000821020008210200082102000823
:1001300010B5054C237833B9044B13B10448AFF321
:1001400000800123237010BD00000020000000008B
:100150006004000808B5034B1BB103490348AFF323
:10016000008008BD000000000400002060040008BA
:1001700080B483B000AF00237B6002E07B68013372
:100180007B607B68044A9342F8D900BF00BF0C37FC
:10019000BD4680BC704700BF1FA1070080B582B07C
:1001A00000AF0A4B3B600D233B7100237B7103239F
:1001B000BB710123FB713B46184600F083F80D210B
:1001C000024800F014F9FFF7D3FFF8E700100140F0
:1001D0000D488546AFF300800C480D490D4A0023B9
:1001E00002E0D458C4500433C4188C42F9D30A4AEC
:1001F0000A4C002301E013600432A242FBD300F05A
:100200000BF9FFF7CBFFFEE70050002000000020B5
:100210000000002080040008000000201C000020D6
:10022000FEE7000080B483B000AF78600B46FB703F
:10023000FB78012B35D17B681C4A934206D11C4BBD
:100240009B691B4A43F0040393612AE07B68194AC7
:10025000934206D1164B9B69154A43F008039361FC
:100260001FE07B68144A934206D1114B9B69104AE8
:1002700043F01003936114E07B68104A934206D167
:100280000B4B9B690A4A43F02003936109E07B68AA
:100290000B4A934205D1064B9B69054A43F0400344
:1002A000936100BF0C37BD4680BC70470008014019
:1002B00000100240000C01400010014000140140F9
:1002C0000018014080B584B000AF78607B681B687F
:1002D00001211846FFF7A6FF0023FB607B681B790E
:1002E000072B2DD87B681B681A687B681B799B00DD
:1002F000FF2101FA03F3DB4319467B681B680A40C0
:100300001A607B685B791A467B681B799B0002FA4E
:1003100003F3FB607B689B791A467B681B799B0023
:10032000023302FA03F31A46FB681343FB607B684F
:100330001B6819687B681B68FA680A431A602FE01B
:100340007B681B685A687B681B79083B9B00FF2110
:1003500001FA03F3DB4319467B681B680A405A60C5
:100360007B685B791A467B681B79023B9B0002FA2B
:1003700003F3FB607B689B791A467B681B79023B21
:100380009B00023302FA03F31A46FB681343FB6037
:100390007B681B685A687B681B6842F400125A60CD
:1003A0007B68DB79002B1ED07B68DB79012B0DD1BC
:1003B0007B681B681A697B681B79194601238B408F
:1003C00019467B681B680A431A610CE07B681B684E
:1003D0005A697B681B79194601238B4019467B6853
:1003E0001B680A435A6100BF1037BD4680BD80B408
:1003F00083B000AF78600B46FB707B68DB68FA78EF
:10040000012101FA02F25A407B68DA6000BF0C3722
:10041000BD4680BC7047000070B500260C4D0D4CE9
:10042000641BA410A64209D100F01AF800260A4D58
:100430000A4C641BA410A64205D170BD55F8043BBC
:1004400098470136EEE755F8043B98470136F2E746
:100450007804000878040008780400087C04000888
:10046000F8B500BFF8BC08BC9E467047F8B500BFA1
:08047000F8BC08BC9E46704771
:040478005501000822
:04047C003101000842
:04000005080001D11D
:00000001FF
